:020000040800F2
:100000008010002041010008812A00083D270008D7
:1000100000000000000000000000000000000000E0
:10002000000000000000000000000000CD2A0008D1
:100030000000000000000000FF0000081D2B000869
:10004000530100080000000053010008530100089C
:100050005301000853010008530100085301000830
:1000600000000000C1080008530100085301000807
:10007000530100085301000853010008000000006C
:1000800053010008192C000800000000092C00088A
:1000900053010008530100085301000853010008F0
:1000A00053010008530100085301000819320008E9
:1000B000453200080348854600F066FB00480047CB
:1000C000E53B000880100020084B196808682030C4
:1000D00080F30988022080F31488BFF36F8F3FBC40
:1000E000AE4608BC04BC62B61847000058000020A9
:1000F000EFF3108072B6704780F310887047EFF30B
:1001000009800E4B1A6820381060F0C044464D46F6
:1001100056465F46F0C008B572B604F0D7F962B62D
:100120000CBC116808681030F0C8A046A946B24659
:10013000BB4680F309882038F0C8184758000020D3
:100140000448804704480047FEE7FEE7FEE7FEE775
:10015000FEE7FEE7AD2B0008B500000830B50B4602
:10016000014600202022012409E00D46D5409D4291
:1001700005D31D469540491B254695404019154617
:10018000521E002DF1DC30BD10B5202A04DB0846DC
:10019000203AD040002110BD0B46D340D04020244F
:1001A000A21A91400843194610BD03460B439B0712
:1001B00003D009E008C9121F08C0042AFAD203E0DC
:1001C0000B780370401C491C521EF9D27047D2B202
:1001D00001E00270401C491EFBD270470022F6E786
:1001E00010B513460A4604461946FFF7F0FF2046AD
:1001F00010BD30B505460020034600E05B1C93426D
:1002000005D2EC5CC85C201A01D1002CF6D130BDBF
:10021000F0B507460846584087B0C00F0490480024
:100220000E46590040084908BC1A884105D2384694
:1002300031461E4617460B460246580040081043FA
:100240004CD0300D039040055900400D490D0590EC
:10025000401A0290402872DA18030121000B0905A8
:100260000843019004980092002805D00199524259
:100270000020884100920190029840210A1A0199B9
:10028000009800F0ADF905460C466B4607CB00F030
:10029000B7F9C0197141039A0E0D0023D7175640C4
:1002A0001A467A40164344D0049A002A2DD0029A66
:1002B000012A039A15DC1205C01A91410126360560
:1002C000001C7141D20F059ED20700930192029645
:1002D0002A46234600F0B4F907B0F0BD384631464F
:1002E000FAE71605224A0F46B218C01AB741012193
:1002F0000905001C4F4100187F411146181879412B
:10030000E20F10436D19644113E0E2076D081543D5
:100310006408C2071443039A01261205C01A9141CA
:100320003605001C7141CE07400830434908C0180B
:1003300051412A46234600F076F9CDE7FFE70498BD
:1003400001224000C117121A00238B410498314644
:10035000C417381AA141EEE730B40124E407634022
:1003600030BC55E730B40124E407614030BC4FE7AE
:100370000000E0FFF0B51FB488B00B990998002485
:1003800048400999C00F490049080991C0070B99D5
:100390000090490049080B9109990898A64608431E
:1003A0001CD00B990A98084318D0099801244000E2
:1003B000420D4800410D099824050003000B20431D
:1003C00009900B980003000B20430B9050181C4918
:1003D0004018002201901446104605E00020014616
:1003E0000DB0F0BD032801DA034600E003239C466C
:1003F000C11A0AAE0AE05F0008ADED5B4F00F75B83
:100400007D430027AA187C41491C5B1E6145F2DD33
:10041000410004AB5A522104120C0A43240C401C24
:100420000828DFDB01980290009970460191009046
:10043000059B049A0799069800F002F9D0E700009E
:100440000DFCFFFFF0B50C465C4085B0E40FE407FF
:1004500003944C000026640859009446490802465B
:100460000296224321D062460A431ED06200570DF5
:100470004A000E032303550D012402462C4924058E
:10048000781B1B0B360B4018234326436146009014
:100490001C46501AB44103D30098401C009002E05F
:1004A000921800985B41002803DA0020014605B04D
:1004B000F0BD0020012109050746864611E064468B
:1004C0001D46141BB54106D36546521BB341744605
:1004D00007430C43A646CD07400849082843921815
:1004E0005B4105460D43EAD11046184313D06046E0
:1004F000194650407140084306D06046101AB34177
:1005000006D20122002306E000220123DB0702E0DD
:100510000122D2435310009874460105381C6141F2
:10052000029C039D0019694100F07DF8BFE70000BF
:10053000FD0300000EB5C217C10F5040CA07401896
:100540000021054B0293019200910A460B4600F0F0
:1005500077F803B000BD00003304000070B5CD0F84
:100560004A0009030123090B1B0519430B4BED0737
:100570000024520D9A4201DA002070BD074B34333B
:100580009A4203DC9A1AFFF7FFFD02E00449511872
:1005900088402C43F1D0404270BD0000FF030000B2
:1005A000CDFBFFFF4A0009030123090B1B0519437B
:1005B000094B10B5520D9A4201DA002010BD064BCE
:1005C00034339A4203DC9A1AFFF7DEFD10BD03496B
:1005D0005118884010BD0000FF030000CDFBFFFF55
:1005E00010B5202A04DB0146203A9140002010BDBE
:1005F000914020239C1A0346E3401943904010BDCC
:1006000010B5202A06DBCB170846203A1041C11747
:100610000B4306E00B461341D0402024A21A914020
:100620000843194610BD10B5002B08DA0024401C01
:10063000614192185B411A4301D14008400010BD4E
:10064000F0B51FB482B005460C0003D0084602F096
:1006500025FE02E002F022FE2030024600902146F4
:100660002846FFF7BDFF049B059A04460F46184332
:100670001143084314D0184610431BD00098402162
:100680000A1A18460599FFF77FFD05460E46009A9F
:1006900005990498FFF7A4FF084305D0012004E062
:1006A0002046394607B0F0BD0020C11705430E4370
:1006B0002C43374300990E986305401A7905E40AE4
:1006C00000220C43FD0A0A3002D500200146E9E76A
:1006D0000105101969410C9C0D9D00196941FFF736
:1006E000A2FFDFE7FEB500231A461B1A8A4103DB8F
:1006F0000020014603B0F0BD4A000D0301212D0B7F
:100700000905520D0D43D10702D100186D41521E4B
:100710005110FF31FF310131002704463E46384673
:10072000009701910246012100200905FFF72CFDE9
:10073000C3197141F818324684468E464A416146D3
:100740002846611A904104D36046241A95417646A2
:100750001F46241900986D41401C00903428E1DDAB
:10076000F91930467041091BA84103D20022D24337
:10077000134601E00022134601980105381C71411F
:10078000FFF751FFB6E70000064C0125064E05E0D5
:10079000E36807CC2B430C3C98471034B442F7D3A2
:1007A000FFF78CFC144800083448000810B50146D7
:1007B000406A426C50231A420AD1416C0122520213
:1007C000114341640168CA681205920F05D020E008
:1007D000C06B026B0846904710BD026A002A18D110
:1007E0000A68120715D58A6853070122002B09DB16
:1007F0004B680C24A3434B60416C13029943114393
:10080000416406E0416C202319434164816C11432B
:10081000816400F0C7FA10BD10B5406A416C4022F7
:1008200011434164816C04221143816400F04FFB49
:1008300010BD10B5406A00F049FB10BDF8B5044684
:1008400000200090206881688907890F012905D15F
:100850000168C9072CD1C168090429D48168154AE7
:10086000102611400125002915D181682943816096
:10087000124811490068FFF771FC00E0401E00902B
:100880000028FBD100F0B4FE07460CE000F0B0FEFB
:10089000C01B022807D9606C30436064A06C2843F9
:1008A000A0640120F8BD20680068C043C007EDD1F6
:1008B0000020F8BD1700008040420F004C000020CF
:1008C00010B5024800F07CFC10BD00007C04002044
:1008D00010B504460068054940181421FFF73EFC96
:1008E000800020640248E06310BD0000F8FFFDBFF7
:1008F0000000024030B5056C0124AC40C56B6C6053
:10090000046863604368102B036803D09960006833
:10091000C26030BD9A600068C16030BD1FB503F091
:1009200054FA029003F010F96E4CFD27F726009060
:1009300002F0ACFF6B4D019068462D1F8088A880A7
:100940006948696B0918FF202A30814203D8207852
:1009500001210843207003F03FF801906148694687
:10096000001F8988C18000206946088020786A4677
:10097000C107117803D0022211436A4600E03940D2
:100980001170127841060BD504210A4369460A709A
:100990005107C90FCB0069460A7832401A430EE06E
:1009A000C106C90F3240C9000A4369460A700A7875
:1009B000FB210A408106C90F89000A4369460A7073
:1009C00061788A076A460ED51078102210436A466D
:1009D0001070C006C00F13784001DF22134003439C
:1009E0006A4613700FE01378DF221340C0094001FC
:1009F00003436A4613701078EF221040CA07D20EE4
:100A000010436A461070107842064807520EC00F15
:100A1000C0010243684602700278BF200240080706
:100A2000C00F800102436846027042782D483A4068
:100A3000801C0178C807800F0243684642704078E6
:100A4000420852008807C00F024368464270E96BB3
:100A50002648FF39F13981426A46517803D8082285
:100A600011436A4600E031405170296CFF39F13979
:100A70008142507802D80421084301E0FB2108405C
:100A80005070012002F0D4FF194D0621695E8842A2
:100A900014DB012002F0CCFF0421695E88420DDCEA
:100AA000022002F0C5FF0E21695E884206DB0220AB
:100AB00002F0BEFF0C21695E884204DD68460178C1
:100AC0000120014303E06846007841084900684678
:100AD0000170008803F056F8642102A803F068F959
:100AE00026E700000C000020AEFDFFFFC20700005B
:100AF000D403002006490020C86106480169042289
:100B000011430161016940221143016170470000F6
:100B1000A80B002000200240064A0021D1610649AE
:100B20000A6902231A430A61486108694022104396
:100B300008617047A80B00200020024010B5054B4B
:100B40000022DA61044A13690124234313610180FE
:100B500010BD0000A80B00200020024010B50B4A79
:100B60000020D168CB060A4904D5C869022318437E
:100B7000C8611020D3685B0705D5CB6901242343E6
:100B8000CB6104210843D06010BD0000002002406A
:100B9000A80B002070B5054600F02AFD0646104C53
:100BA0000AE0681C08D0002D04D000F021FD801B55
:100BB000A84201D9032070BDE068C007F1D1E06808
:100BC000800601D52020E060E068C00602D4E0681D
:100BD000400703D5FFF7C2FF012070BD002070BDA4
:100BE00000200240F8B50546044640352878002626
:100BF000012808D001202870206881688907890FA2
:100C0000012908D101E00220F8BD0168C90738D1E7
:100C1000C168090435D4616CFF220132914302227C
:100C200011436164C1688907890F0091C16889080F
:100C30008900C1602068816892071143816000F0DB
:100C4000D7FC07460EE000F0D3FCC01B022809D9F0
:100C5000606C0221884310210843606400202870E2
:100C60000120F8BD206880680028ECDB2068C1689E
:100C7000009A1143C160606C80088000401C606471
:100C800004E0606C20210843606401260020287085
:100C90003046F8BDF8B5002504464034009522786A
:100CA000012A39D00122227003689E68760767D432
:100CB000384F4E68BE424DD09E6A0F78BA401643F8
:100CC0009E620123826B1B079A421FD0012A1DD00E
:100CD000022A1BD0032A19D0042A17D0052A15D0BE
:100CE000062A13D0072A11D002688B685669760746
:100CF000760FB3420AD05369DB08DB00536100680A
:100D000042690B7A5B075B0F1A4342610A68102A3B
:100D100004D0112A02D038E00220F8BD1E488368B2
:100D2000102A07D001229205134383600868102817
:100D300003D02AE00122D205F6E7194817490068D6
:100D4000FFF70CFA0A21484300E0401E00900028FB
:100D5000FBD11AE0986A0E78B24090439862096815
:100D6000102901D0112910D10B488268102904D014
:100D7000012189058A43826007E00121C905F9E75D
:100D8000416C202211434164012500202070284637
:100D9000F8BD0000011000000027014040420F0094
:100DA0004C00002070B5444C0022A256434D500028
:100DB000295EA368521C5E1A41490B881BB22B5254
:100DC0009B19A36080352B5E2669F61A0B891BB22E
:100DD0002B529B19236140352B5E6669F61A8B896D
:100DE0001BB22B529B19636140352B5EA669F61A24
:100DF0000B8A1BB22B529819A061486831494018E0
:100E0000E1694043401851B2E0612170202921DBA3
:100E1000002525706178294E49004036715EE268F0
:100E2000511AE160C117C90E08184011FFF782FB83
:100E300003F040FAFFF792FB01B260784200B15232
:100E4000E268401C8918C0B2E561E160607020284A
:100E500000D36570A0681C4DC117C90E0818401159
:100E60002063E0680926C117C90E081840116063A5
:100E70002069F606C117C90E08184011A063606901
:100E8000C117C90E08184111E163A069C217D20E3B
:100E9000101840112064A94204DB002208213046CA
:100EA00000F09FFB206CA84204DB002202213046A8
:100EB00000F097FB70BD00000800002098000020A3
:100EC000E8030020F4F7FFFF8A0E00007047704728
:100ED000F8B500250446002803D0606C002802D035
:100EE00008E00120F8BD0020A064402108552046FC
:100EF00000F0A8F8606C1022C006002870DB2068A3
:100F0000816849076CD4616C13019943022319432A
:100F1000616481688907890F012905D10168C907C2
:100F20000FD1C16809040CD4C16818239943A36880
:100F30001943C16020680169636889008908194301
:100F400001612068C1683D4B1940C160A069E16939
:100F50008003C9030843216A4B031843636B012BC9
:100F600002D001231B0300E000231843E368184369
:100F70002369022B09D000231843236B666A5B00A8
:100F800018430123012E02D00AE00423F4E70029CC
:100F900027D0616C202631436164A16C1943A164A0
:100FA000A16A0E46FF3EC23E02D0E66A31430843C4
:100FB0002168CE680643CE600126A16B3607B14298
:100FC00013D0012911D002290FD003290DD00429F3
:100FD0000BD0052909D0062907D0072905D010E034
:100FE00028E0012109040843DAE721684E69F60880
:100FF000F6004E6121684E69278F7F077F0F3E43C1
:101000004E612168C9680E4E3140814207D10020EF
:10101000A064606C80088000401C606408E0606C24
:101020000221884310436064A06C1843A06401252A
:101030002846F8BD606C10436064F8E71902FEFFB3
:10104000E7FF3F83F0B505460068184987B088423E
:101050002AD1174881694715394381618069002683
:101060003840059035200090032001900920694602
:101070000296C00600F00CFA0E480F4C41C4A7605F
:101080008020266060600001E060202066612061B1
:101090000948083C00F0E2F8002803D0762107A0B8
:1010A00002F0E6F8EC63656207B0F0BD0024014091
:1010B00000100240080002407C0400202E2E2F5316
:1010C00072632F73746D3332663078785F68616C49
:1010D0005F6D73702E630000F7B50446006800254D
:1010E000806840073DD426464036307801280AD033
:1010F00001273770E069012807D02046FFF79EFBE3
:10110000050002D02EE00220FEBD606C16490840AA
:10111000FF210131084360640020A0643070E16B5E
:1011200012488862E16B1248C862E16B114808639B
:1011300021681C200860206841681022114341602A
:101140002068C1683943C1602168E06B4031029B6F
:10115000019A00F0AFF82068816804221143816091
:1011600000E002252846FEBDFEF1FFFFAD070008A6
:10117000330800081908000870B500240146203122
:101180004A78022A03D004218163012416E0026810
:1011900013680E25AB431360026813685B085B009D
:1011A00013600122056C1346AB40C56B6B604A703F
:1011B00000220A70416B002900D08847204670BD8C
:1011C000F0B4C16B0D6801680C680422066C13460C
:1011D000B3402B420DD063070BD50B689B0602D49E
:1011E0000B6893430B60016C8A40C16B4A60C16A13
:1011F00019E00227B74002462F4001232032002F7A
:1012000015D0A70713D50C68A40604D40C680A25CA
:10121000AC430C605370036C02219940C36B59605E
:1012200000211170816A002916D0F0BC08470827F8
:10123000B7402F4210D024070ED50C680E25AC43C2
:101240000C60046C1946A140C46B616083635370E9
:1012500000211170016BE6E7F0BC704770B5040027
:1012600024D00220214620310D46487022681168A2
:101270000F48A3680140606826691843E368334358
:10128000184363691843A3691843E3691843084383
:1012900010602046FFF71CFB0020A062E062206384
:1012A0006063A06301216970287070BD012070BD6A
:1012B0000FC0FFFFF8B504468C46203001780025AA
:1012C000012909D00126067041780027012905D09F
:1012D000077002252846F8BD0220F8BD02214170A2
:1012E000A7632068016849084900016061462046FB
:1012F000FFF700FBE06A00282068016802D00E2298
:10130000114306E00A2211430160206801680422AB
:10131000914301602068016831430160DAE731B52B
:1013200000F066F9009C0546601C00D0641C00F0CB
:101330005FF9401BA042FAD338BD0000F8B505465E
:1013400023480F46017E012601290BD00121017699
:101350002868204C012807D02046FFF71BFC0028F6
:1013600013D030E00220F8BD2046FFF713FC002820
:1013700029D1FFF7BFFB2046FFF70CFC06461648B5
:1013800001690422914301611DE00020C0433860DF
:101390006C6812E02046FFF7BFFB0E48FFF7FAFB30
:1013A00006460D48026902218A430261002E01D0DF
:1013B0003C6008E0012080022418A8688102686867
:1013C0000818A042E6D80248002101763046F8BD50
:1013D000A80B002050C30000002002400348016910
:1013E000802211430161002070470000002002406C
:1013F000F0B51FB407461A480024017E15461E4664
:10140000012907D0012101761648FFF7C3FB002808
:1014100003D020E0022005B0F0BD012F02D0022F42
:1014200000D00427220128463146FEF7ADFE81B2E6
:10143000019862001018FFF781FB0A48FFF7AAFB2A
:1014400009490A69520852000A61002803D1641C44
:10145000E4B2BC42E6D3024900220A76DBE7000090
:10146000A80B002050C3000000200240054801697D
:10147000090605D5044941600449416000207047D0
:10148000012070470020024023016745AB89EFCD62
:10149000F8B500238DE001249C40A44622407DD075
:1014A0004C68022C01D0122C0CD1DC08A4002718A7
:1014B0003C6A5D07ED0E0F26AE40B4430E69AE40A8
:1014C00026433E6205685E000324B4400F79A543BD
:1014D000BF07BF0FB7402F4307604D68012D05D0F0
:1014E000022D03D0112D01D0122D0ED18568CF68A9
:1014F000A543B7402F43876047686546AF430D79E2
:10150000ED06ED0F9D403D434560C568A5438C68E1
:10151000B4402C43C4604C68E40049D5284CA5690C
:1015200001263543A561A4699D0834400094254CEB
:10153000AD002F19BC689D072E0F0F25B540AC4399
:101540000925ED06A84201D100250FE01E4DA84255
:1015500001D101250AE01D4DA84201D1022505E077
:101560001B4DA84201D1032500E00525B5402543C8
:10157000BD60184C25684E689543F60300D51543A9
:10158000256065684E689543B60300D515436560D0
:10159000A5684E689543F60202D500E008E01543C1
:1015A000A560E5684E689543B60200D51543E56031
:1015B0005B1C0A681446DC4000D06CE7F8BD0000F4
:1015C00000100240000001400004004800080048EC
:1015D000000C0048000401400069084000D00120D0
:1015E0007047002A01D08161704781627047000016
:1015F00001480068704700005000002070B50400EA
:101600000FD021681348086021681348086003CC94
:1016100041602068083C21688860FFF7E9FF0546C3
:1016200008E0012070BDFFF7E3FF401B272801D928
:10163000032070BD2068C0680028F4D120680269CA
:10164000E1688A4201D0016101E0044901600020A3
:1016500070BD0000CCCC000055550000AAAA0000C7
:10166000006802490160002070470000AAAA00003B
:1016700002480168491C01607047000050000020CA
:1016800010B506480168102211430160002000F0E7
:1016900007F800F041F8002010BD000000200240D3
:1016A00000B5014687B00022112000F061F811203A
:1016B00000F054F81348C26910210A43C261C0699E
:1016C0000840059004A9684600F06CF900F08CF918
:1016D0000D49FEF743FD0E490C4A0A600D4A401EB3
:1016E000CA604860002008618860084600F042FC3B
:1016F000002802D0012007B000BD054800F07CFCA6
:10170000F9E700000010024040420F0000100040C6
:10171000640B0020E703000008B50F48816901222F
:1017200011438161816911400091C26901040A433A
:10173000C261C0690022084000901146501F00F0AD
:1017400017F803210022481F00F012F8032100229D
:10175000081F00F00DF808BD00100240C106C90EB8
:1017600001208840014908607047000000E100E066
:1017700010B501F089F910BDF8B505460068354C83
:10178000C00352D5E0690026C00007D4E1692004F7
:101790000143E161E1690140012600912E480168A1
:1017A000C90510D40168821511430160FFF720FFBD
:1017B000074604E0FFF71CFFC01B642824D8264816
:1017C0000068C005F6D5206A03273F02384020D0C4
:1017D0006968394081421CD0206A226AB8430121DD
:1017E00009040A432262226A8A4322622062C007F5
:1017F0000FD0FFF7FDFE009008E0FFF7F9FE00991B
:10180000411A1648814201D90320F8BD206A800799
:10181000F3D5206A6968B84308432062002E04D0DB
:10182000E169012000078143E1612878C00705D004
:10183000206BA96880088000084320632878800610
:1018400005D5206B10218843E968084320630020F8
:10185000F8BD000000100240007000408813000036
:1018600070470000F8B5054644480E460068C007BA
:10187000C00FB0420AD241480168490849003143CB
:1018800001600068C007C00FB0425CD128783C4CB2
:10189000800705D56068F0218843A9680843606027
:1018A0002878C0073FD06868012813D02168022833
:1018B00013D08907002946DA616889088900014345
:1018C0006160FFF795FE6968074601290DD002297E
:1018D00017D024E021688903ECE78901EAE7FFF7E4
:1018E00087FEC11B2748814217D860680007800F18
:1018F0000128F4D117E0FFF77BFEC11B214881428C
:101900000BD860680007800F0228F4D10BE0FFF7C6
:101910006FFEC11B1B48814201D90320F8BD6068DE
:101920000007800FF3D115480168C907C90FB142FC
:101930000BD9016849084900314301600068C007BC
:10194000C00FB04201D00120F8BD2878400706D56D
:101950006068072109028843E9680843606000F075
:1019600053F86168084A0906090F515CC8400749E5
:1019700008600020FFF794FE0020F8BD0020024020
:101980000010024088130000C44700084C000020EB
:10199000034801680122D20411430160704700002E
:1019A0000010024010B5072202600A4A53689B07E4
:1019B0009B0F43605368F0242340836052680723E1
:1019C0001B021A40C26004480068C007C00F0860CC
:1019D00010BD0000001002400020024001480068D5
:1019E000704700004C000020044805490068496821
:1019F000044A4905490F515CC84070474C0000201B
:101A000000100240D447000810B513A30FCB88B0D4
:101A10006C460FC414A30FCB0FC417494A680C209F
:101A2000134603401548042B02D0082B02D0401067
:101A300008B010BD93021B0F6C46E45CC96A04AB8E
:101A40000907090F595CD20303D5FEF787FB6043F2
:101A5000EEE70B486043EBE70203040506070809BD
:101A60000A0B0C0D0E0F10100102030405060708E7
:101A7000090A0B0C0D0E0F10001002400024F40098
:101A800000093D0010B5044CA068000603D5FFF71F
:101A9000E7FE8020A07210BD00100240FEB5044693
:101AA0000078D04DC00747D068680007800F012834
:101AB00007D068680007800F022809D16868C00352
:101AC00006D52868800337D5606800287ED033E0CB
:101AD000012062680004012A11D08100002A01D08F
:101AE000052A10D02A6882432A6028688843286023
:101AF0006068002814D0FFF77BFD06460CE02968DB
:101B000001432960F4E72A680A432A60F7E7FFF7F0
:101B10006FFD801B64286FD828688003F7D50BE021
:101B2000FFF766FD064604E0FFF762FD801B6428B0
:101B3000F1D828688003F7D4207801268007002890
:101B40003BDA68680007800F07D068680007800FDD
:101B5000022809D16868C00306D42868800715D513
:101B6000E068012832D111E0E0680028286815D02B
:101B700030432860FFF73CFD074604E0FFF738FDDF
:101B8000C01B0228C7D828688007F7D52868F82125
:101B900088432169C900084328600EE040084000DE
:101BA0002860FFF725FD074604E0FFF721FDC01B75
:101BB0000228B0D828688007F7D42078000724D5F9
:101BC000E0690028686A10D0304300E008E16862EC
:101BD000FFF70EFD074604E0FFF70AFDC01B0228D1
:101BE00099D8686A8007F7D50FE04008400068621E
:101BF000FFF7FEFC074605E09DE0FFF7F9FCC01B80
:101C0000022888D8686A8007F7D42078042740071C
:101C1000002860DA00200190E869C00008D4E96972
:101C2000B8060143E961E969014001200091019092
:101C30006D480168C90511D401688215114301601E
:101C4000FFF7D6FC009005E0FFF7D2FC0099401AA0
:101C5000642870D864480068C005F5D5A0680128DC
:101C60000AD0002801D0052810D0286A400840007A
:101C70002862286AB84301E0286A30432862A068D5
:101C8000002812D0FFF7B4FC00900AE0286A38431D
:101C90002862F1E7FFF7ACFC0099411A53488142F2
:101CA00049D8286A8007F5D50DE0FFF7A1FC009020
:101CB00006E0FFF79DFC0099411A4C4881423AD852
:101CC000286A8007F5D40198002804D0E96901202A
:101CD00000078143E9612078C00635D56069012895
:101CE0000CD0401D686B23D038436863686B400894
:101CF00040006863FFF77CFC064622E0686B3843CF
:101D00006863686B30436863FFF772FC064604E063
:101D1000FFF76EFC801B02285BD8686B8007F7D545
:101D2000686BF8218843A169C900084368630BE028
:101D3000B8436863F4E74CE0FFF75AFC801B0228C5
:101D400047D8686B8007F7D4206A002846D06968B6
:101D50000907890F022943D0012636060228286880
:101D600005D0B0432860FFF743FC044633E0B0439E
:101D70002860FFF73DFC074604E0FFF739FCC01B75
:101D8000022826D828688001F7D4E86AE16A0009A9
:101D900000010843E862616AA06A084369683D225D
:101DA0001204914308436860286830432860FFF7B5
:101DB0001FFC044604E0FFF71BFC001B022808D8A8
:101DC00028688001F7D509E0FFF712FC001B022804
:101DD00001D90320FEBD28688001F5D40020FEBD96
:101DE0000120FEBD0010024000700040881300007A
:101DF000FFB581B016460F46040005D02546603574
:101E0000687A002803D007E0012005B0F0BD00206B
:101E10002872204600F0CAFB2420687220680168FE
:101E2000490849000160204601F02AF90128ECD058
:101E3000606A002802D0204601F042F820688168DC
:101E4000012292031143816020688168520091430E
:101E500039438160049871050004084321680A68C9
:101E6000064B1A4002430A602068016801221143B0
:101E70000160204601F089F8C7E70000FFFF00FC81
:101E8000042204490428086902D09043086170477D
:101E90001043FBE700E000E0094910B5401E88420E
:101EA00001D9012010BD074C60610321081F00F01B
:101EB000EBFD0020A06107202061002010BD000084
:101EC000FFFFFF0000E000E07047704770B5034679
:101ED00020331A7F012A27D001241C7702225A7747
:101EE0000326CA683602B2438E6800253243A60232
:101EF000B2434E6800683243E602B2430E68324392
:101F00002603B2430E6932436603B2434E698969C0
:101F10003243A603B2430A43E603B2430A43426490
:101F20005C771D77002070BD022070BD70B5024641
:101F30002032137F012B1BD0012313770224547707
:101F4000046865687026B5436560046865680E6856
:101F5000354365600468A5688026B543A5600068C0
:101F6000846849680C43846053770020107770BD03
:101F7000022070BD70B5040005D025462035687F6D
:101F8000002802D006E0012070BD002028772046FE
:101F900000F00AF802206877211D206800F044FE56
:101FA00001206877002070BD08B5104A016810480C
:101FB00091420FD1C26981150A43C261C0690022F2
:101FC0000840009003211320FFF7D2FB1320FFF7F6
:101FD000C5FB08BD074A9142FBD182690121490432
:101FE0000A43826180690840009008BD00200040DB
:101FF00000100240004401400268D36801210B43F5
:10200000D360006802680A4302600020704770478E
:1020100070B50446006801690025C9438907002995
:1020200015DBC168C943890711D4E91E016101208C
:102030002077206880698007204602D0FFF7E7FFFD
:1020400004E000F0AFF8204600F044F9257720685E
:102050000169C943490717D4C168C943490713D463
:102060000421C9430161022020772068806980052E
:10207000800F204602D0FFF7CAFF04E000F092F87C
:10208000204600F027F9257720680169C943090730
:1020900016D4C168C943090712D40821C943016194
:1020A000042020772068C0698007204602D0FFF70F
:1020B000AEFF04E000F076F8204600F00BF925773B
:1020C00020680169C943C90617D4C168C943C90654
:1020D00013D41021C9430161082020772068C0690A
:1020E0008005800F204602D0FFF791FF04E000F04A
:1020F00059F8204600F0EEF8257720680169C943B9
:10210000C90708D1C168C943C90704D1891E016143
:10211000204600F043F920680169C943090609D443
:10212000C168C943090605D48021C943016120461D
:10213000FFF7CAFE20680169C943490609D4C1688E
:10214000C943490605D44021C9430161204600F036
:102150002FF920680169C943890609D4C168C943B8
:10216000890605D42021C94301612046FFF7ADFE51
:1021700070BD000000B50068084985B088420BD1E9
:10218000801500900221002001910290049103909B
:1021900069460348FFF77CF905B000BD00440140E3
:1021A000000400487047F8B5064604462036307FE4
:1021B0000D4601280DD001203077022070770427CA
:1021C000002A08D0042A16D0082A2AD00C2A4DD179
:1021D00037E00220F8BD206800F076FD20688169B4
:1021E00008221143816120688169B94381612068B7
:1021F00081692A6912E0206800F0AAFD20688269DE
:102200000121C9020A438261206881690122920288
:1022100091438161206881692A69120211438161B9
:1022200024E0206800F0D4FD2068C26908210A4338
:10223000C2612068C169B943C1612068C1692A6966
:1022400012E0206800F006FE2068C1690122D20277
:102250001143C1612068C269012189028A43C261B8
:102260002068C1692A6912021143C1610120707797
:1022700000203077F8BD70B5040005D02546203524
:10228000687F002802D006E0012070BD002028777A
:10229000204600F00BF802206877211D206800F02E
:1022A000C3FC01206877002070BD000008B50068FD
:1022B0000649884208D106488269012109040A4377
:1022C000826180690840009008BD00000040014024
:1022D000001002407047000010B50446006801225B
:1022E00000F0E6FC0C482168814208D00B4881428E
:1022F00005D00B48814202D00A48814204D1486C83
:102300000122D2031043486420680168012211436E
:102310000160002010BD0000002C01400040014081
:10232000004401400048014030B5044600680022E6
:1023300000F0BEFC154A144821689310814208D071
:102340001348814205D01348814202D0124881428D
:102350000AD1086A104207D1086A184204D1486CB1
:102360000125ED03A84348642068016A114206D1A3
:10237000016A194203D1016849084900016001203E
:1023800020346077002030BD002C01401111000086
:1023900000400140004401400048014010B5006881
:1023A0000249884201D1FFF763F910BD00100040D7
:1023B00070477047F8B5044600680168FF22213273
:1023C0009143016020688168490849008160216863
:1023D0008868224646062046002340300F2560329A
:1023E000002E1BDA8E684027BE438E60616E002986
:1023F0000AD00C484863606EFEF7BEFE00280BD082
:10240000606E416B884707E04383206805622020A7
:1024100090722046FFF7CDFF0020F8BD43830D6288
:10242000F5E70000B12F000870470000F8B5036819
:102430000446D96918680D072D0F07D18A0605D5FE
:10244000820603D5204600F0DDFDF8BD9A68002D18
:1024500064D0D507ED0FFF26213606402E435DD010
:10246000CE0706D0C60504D501261E62E36E3343AF
:10247000E3668F0702230426002F06DAD70704D06D
:1024800027683B62E76E3743E7664F0706D5D207FA
:1024900004D022681662E26E1A43E2660A0709D582
:1024A000202202402A4305D0236808221A62E36EE4
:1024B0001343E366E26E002AC7D0890604D580067E
:1024C00002D5204600F09EFDE06E000703D4206890
:1024D000806840061CD5204600F078FD20688168A1
:1024E000490611D58168402291438160606E0028C1
:1024F0000AD012494163606EFEF73EFE0028A4D068
:10250000606E416B8847F8BD2046FFF78DFFF8BD30
:102510002046FFF789FF0020E066F8BD0A0605D5D2
:10252000020603D5204600F043FEF8BD4906FCD55F
:102530004006FAD5204600F058FDF8BD9D2F000852
:1025400070B5040005D025466035687A002802D0B1
:1025500006E0012070BD00202872204600F026F819
:1025600024206872206801684908490001602046FB
:1025700000F086FD0128EDD0606A002802D02046D8
:1025800000F09EFC206841680122D2029143416024
:1025900020688168082291438160206801680122D7
:1025A00011430160204600F0F0FC70BDF0B50368F7
:1025B000254F092000242549022503260122C006B3
:1025C00087B0BB4220D18F6993031F438F61896914
:1025D000039619400591110300910195029404920C
:1025E0006946FEF755FFC0200090029469460396A5
:1025F000019504941648FEF74BFF002203211B208F
:10260000FFF7B6F81B201AE0124FBB4219D1CF6971
:1026100001235B041F43CF61C969039619400591EB
:102620000321890300910195029404926946FEF703
:102630002FFF002203211C20FFF79AF81C20FFF730
:102640008DF807B0F0BD00000038014000100240D6
:10265000000400480044004070B5034660339C7A93
:10266000202C39D100290BD0002A09D001258468FB
:102670002D03AC4206D10669002E03D1CE0701D04E
:10268000012070BD1E7A012E26D001261E724165E2
:10269000014640310A834A83FF22AC4204D10469D7
:1026A000002C07D10D4A05E0002C04D10469002C50
:1026B00000D07F228A830021C16622229A72197279
:1026C00001688A6832438A6000680168FF2221320B
:1026D00011430160002070BD022070BDFF010000A9
:1026E000704730B5034660335C7A202C23D1002933
:1026F0000BD0002A09D0012584682D03AC4206D1F5
:102700000469002C03D1CC0701D0012030BD1C7A14
:10271000012C10D0C164014640310A824A82002156
:10272000C16621225A721972006801688022114321
:102730000160002030BD022030BD7047FEE7000080
:102740003EB526492648002412C004604460046156
:1027500044610225846185600821C461C16049012A
:102760000162890041620121C46281620838FEF77A
:10277000AFFB002800D0FEE70120000301900620F7
:102780000290009469461648FEF784FA002800D0AB
:10279000FEE7694612480095FEF77CFA002800D053
:1027A000FEE70420009069460D48FEF773FA002802
:1027B00000D0FEE70520009069460948FEF76AFA56
:1027C000002800D0FEE71120009069460448FEF77B
:1027D00061FA002800D0FEE73EBD00000024014061
:1027E000D8010020F0B53D4887B042690121C904F5
:1027F0000A43426142690A4005924269C9000A439C
:10280000426142690A400592426949110A434261A4
:1028100042690A400592426949000A43426140699F
:102820002F4E08400590092000223146C006FEF7D1
:10283000D8FE012230212B48FEF7D3FE07204003AB
:10284000002401256A4631C269462748FEF720FE6A
:10285000092002946946C006009601950394FEF78C
:1028600017FEC026092001946946C006009602940E
:10287000FEF70EFE1D480090019469460294194827
:10288000FEF706FE680300900327092069460197BA
:102890000294C006FEF7FCFD0194694614480096B8
:1028A0000294FEF7F5FD0820009069460197029416
:1028B0000C48FEF7EDFD302000900294694601952A
:1028C00003940848FEF7E4FD68026A4631C269468F
:1028D0000448FEF7DDFD07B0F0BD00000010024027
:1028E0000A0F0000000400480008004807FC000030
:1028F0000014004810B5214890B01F490160002421
:102900000F21846041607D210461C9004461C16080
:1029100080218161FFF7AFFC002800D0FEE7202076
:102920000EA911C115480839FFF700FB002800D097
:10293000FEE7602000900120069401900294039429
:1029400004940594002269460C48FFF72CFC0028EB
:1029500000D0FEE701200794400308940C900994EE
:102960000A940B9407A90D940448FFF7AFFA0028C6
:1029700000D0FEE710B010BD0040014074020020FE
:1029800010B520488EB01E49016000247821846073
:102990004160046164214461C16080218161FFF76D
:1029A000E9FA002800D0FEE71648FFF764FC00288B
:1029B00000D0FEE76020009032200694019002943F
:1029C000039404940594002269460E48FFF7EBFB3C
:1029D000002800D0FEE701200794400308940C90E3
:1029E00009940A940B9407A90D940648FFF76EFA10
:1029F000002800D0FEE70348FFF7BCFB0EB010BD77
:102A000000440140B402002010B50E480C4901609A
:102A10004B21C90141600021012252038160C26043
:102A200001618161C1610C22016242610B46416218
:102A30000A46FFF7DDF9002800D0FEE710BD0000D0
:102A400000380140F402002010B50C480A4901602A
:102A5000E1214902416000218160C1600161816121
:102A6000C1610C22016242614162FFF769FD0028E9
:102A700000D0FEE710BD00000044004064030020C9
:102A800010B5FEF7FFFF10BD8307FF22DB0E9A4053
:102A90008907090E994000280BDA0007000F083853
:102AA000830808489B001818C36993430B43C3610C
:102AB0007047830804489B001B181868904308431C
:102AC0001860704700ED00E000E400E0704700008F
:102AD00008B501F07AF909250E4CED067D26F600C1
:102AE0000090208A002801D0012200E00022082165
:102AF0002846FEF776FD608A012202212846FEF76D
:102B000070FD0548FEF7ACFD3146684601F050F90E
:102B1000E7E70000D40300202402002010B501F0F4
:102B200049FD012801D001F015FD10BD30B595B06B
:102B3000012419200594009001941020022506A973
:102B400031C10003099000010A900B946846FEF71A
:102B5000A5FF002800D0FEE70D95072000250C906A
:102B60000E9501210CA80F95FEF77CFE002800D0E1
:102B7000FEE710A812951094FEF7FEFD002800D085
:102B8000FEE7FEF705FFFEF729FF7D21C900FDF7EF
:102B9000E5FAFFF781F90420FFF772F9032100221B
:102BA000081FFEF7E5FD15B030BD000013480168B1
:102BB0000122114301604168114A114041600168DE
:102BC000104A1140016001680122920491430160A2
:102BD00041683F22120491434160C16A0909090119
:102BE000C162016BFF22143291430163416B4908BA
:102BF00049004163002181607047000000100240DD
:102C00000CB8FF08FFFFF6FE10B50248FFF700FA08
:102C100010BD00003402002010B50248FFF7F8F99B
:102C200010BD0000640B0020F0B502681A4B1B4C6D
:102C3000984201D0A04203D17025AA434D682A438F
:102C4000174D184E184F98420AD0A04208D0174C82
:102C5000A04205D0A84203D0B04201D0B84205D16D
:102C60001446032212029443CA6822438024A243DA
:102C70004C69224302608A68C2620A688262984292
:102C800005D0A84203D0B04201D0B84201D10969B1
:102C9000016301214161F0BD002C014000040040AE
:102CA0000040014000440140004801400020004035
:102CB00010B50123046A8B409C430462036A8A4076
:102CC0001343036210BD0000F0B5026A52085200BF
:102CD0000262056A436882697024A24392080C6804
:102CE00092001443022295438A68164E2A43144DDB
:102CF000A84207D0B04205D0134FB84202D0134FBC
:102D0000B84206D10827BA43CF6817430422974335
:102D10003A46A84207D0B04205D00B4DA84202D097
:102D20000A4DA84206D103252D02AB434D691D4330
:102D30008B692B4343608461496841630262F0BD43
:102D4000002C014000400140004401400048014087
:102D500070B5026A10239A430262056A4268836969
:102D600073242402A3430C6824021C4320239D43A4
:102D70008B681B012B43124DA84208D11D46CB681E
:102D80008026B5431B012B434025AB4308E00D4D86
:102D9000A84205D00C4DA84202D00C4DA84208D143
:102DA0000325AD02AA434D69AD0015438A6992001F
:102DB0002A434260846149688163036270BD0000F8
:102DC000002C014000400140004401400048014007
:102DD00070B5026AFF2301339A430262056A4368B1
:102DE000C2697024A24392080C6892001443012225
:102DF000520295438A6812022A43124DA84208D112
:102E00001546CA68C614B54312022A430515AA43DB
:102E100008E00D4DA84205D00C4DA84202D00C4D43
:102E2000A84208D103252D03AB434D692D011D4355
:102E30008B691B012B434360C4614968C163026213
:102E400070BD0000002C01400040014000440140E2
:102E50000048014030B5026A01231B039A43026215
:102E6000046A4268C36973252D02AB430D682D02C5
:102E70001D4301235B039C438B681B0323430C4CC2
:102E8000A04208D00B4CA04205D00B4CA04202D06F
:102E90000A4CA04205D10124A403A2434C69A40119
:102EA00022434260C56149680164036230BD00008D
:102EB000002C014000400140004401400048014016
:102EC00010B5818CC90707D001684A6801235B04EB
:102ED0009A43836A1A434A60818C890707D501683F
:102EE0004A6801231B049A43C36A1A434A60818CCF
:102EF000490707D501684A6801239B049A43036B7D
:102F00001A434A60818C090707D501684A68012382
:102F1000DB039A43436B1A434A60818CC90607D589
:102F20000268916801231B039943836B19439160E5
:102F3000818C890607D501688A6801235B039A435F
:102F4000C36B1A438A60818C490612D503685A689C
:102F500001210905046C8A4322435A60026C8A42AB
:102F600007D10268516803235B059943436C1943F9
:102F70005160818C090607D501684A680123DB048A
:102F8000806C9A4302434A6010BD0021C166202232
:102F900060304272827201720846704710B5406A12
:102FA0000022014640314A834A82FFF73DFA10BDB4
:102FB00010B5406A00225A210A5202680F2111629C
:102FC00020226A210A54FFF7F4F910BD01680A684B
:102FD000FF2321339A430A6001688A68520852002D
:102FE0008A60202160308172704710B501680A68DC
:102FF00040239A430A60202269210A54FFF79DFB6F
:10300000002010BD70B50246403203466033948BF9
:103010009D7A0168222D05D08869082210438861B5
:10302000022070BD898C012685683603B54202D125
:103030000569002D0BD02140446D651C456521704C
:10304000518B491E0904090C518307D015E0456DC9
:1030500021402980416D891C4165F1E701680A68BA
:10306000FF242134A2430A6001688A685208520092
:103070008A6020219972FFF733FB002070BD0000A9
:10308000F8B504462369A268E5691A43636910200C
:103090002B43002125681A432B680E463E4F3B40C8
:1030A00013432B6023685A6803252D03AA43E56860
:1030B0002A435A60236AA26925681A43AB680B2722
:1030C0003F02BB431343AB60344A2568954210D19D
:1030D000334A126B9207920F0ED0012A05D0022AB2
:1030E00005D0032A09D1022007E0042005E00820CA
:1030F00003E02C4A954200D100200122E369D2036B
:10310000934224D100280CD002280DD0042813D0DB
:10311000082817D001260A0912010807400F10439A
:103120002FE0FEF761FC09E061681F4A480880183B
:10313000FDF714F881B2EEE7FEF766FC6168400027
:103140004A08F4E76168012248081204EFE7002802
:1031500008D0022809D004280BD0082814D0012652
:103160003046F8BDFEF740FC05E061680F4A4808AC
:103170000CE0FEF749FC61684A088018FCF7EEFF96
:1031800080B22168C860EBE7616848088018FCF7E6
:10319000E5FF80B2E860E3E7F369FFFF0038014034
:1031A00000100240004400400024F40000127A00A5
:1031B0006921095C212901D0022070470246403272
:1031C000518A002912D0012381681B03994202D140
:1031D0000169002915D0C16C4B1CC36400680978D3
:1031E0000185508A401E50820020704701680A689D
:1031F00080239A430A6000680168402211430160FD
:10320000F2E7C16C03680988C905C90D1985C16C4D
:10321000891CC164E5E7000010B50848FFF706F90E
:1032200006480068C169C90606D5016A1022114323
:10323000016203490120087010BD0000F402002063
:103240000A00002010B50848FFF7F0F806480068AB
:10325000C169C90606D5016A1022114301620349FA
:103260000120087010BD0000640300200B00002046
:10327000FEE700000FB410B504A9074B02AA03989B
:1032800000F038F8044602A9002000F0DBF92046DF
:1032900010BC08BC04B01847453600082021020CB9
:1032A00001D010211046020A01D010460839020947
:1032B00001D01046091F820801D01046891E42081D
:1032C00001D0881E7047081A704702E008C8121F14
:1032D00008C1002AFAD170477047002001E001C1FF
:1032E000121F002AFBD17047014908607047000097
:1032F00094000020FFB58FB00546002606E0252883
:103300000AD0129A119990476D1C761C28780028D3
:10331000F5D1304613B0F0BD002402940121B54A26
:10332000009400E004436D1C2B780846203B984035
:103330001042F7D128782A280ED002222878014698
:103340003039092916D802990A23594330394018CF
:1033500014436D1C0290F1E7109802C8029110907E
:10336000002904DA0120400304434842029002206D
:1033700004436D1C28782E2817D104200443687854
:103380006D1C2A280CD110986D1C02C80091109059
:103390000BE000990A225143303940186D1C00900F
:1033A0002878014630390929F3D928786C2810D0BB
:1033B00006DC4C281AD068280ED06A2817D104E001
:1033C000742813D07A2812D110E00120400504435C
:1033D0000CE00121090501E0032109050C4369788E
:1033E000814203D10120000524186D1C6D1C287832
:1033F000692874D006DC00288BD0632827D0642885
:1034000006D16CE06E2808D073282CD0752878D0AF
:10341000129A11999047761C5FE06002400F0228D3
:1034200009D003280DD00428109801680DD00E6033
:10343000001D109051E01098F21701680E604A606C
:10344000F6E7109801680E80F2E70E70F0E710982A
:103450006A4601781173001D10900020507303A874
:103460000190012005E0109802C801911090002001
:10347000C04361070CD5002700E07F1C00998F42F4
:103480000FDA8742F9DB0199C95D0029F5D108E01F
:10349000002700E07F1C8742FCDB0199C95D002901
:1034A000F8D102982146C01B0290129B119A00F09D
:1034B000B3F88019C61907E0019801990078491CF2
:1034C0000191129A119990477F1EF5D22146129BC5
:1034D000119A029800F090F886196D1C16E70A20E0
:1034E0000190109901C910916102490F032900D17F
:1034F00000B2042900D140B2002803DA40422D2155
:1035000003E00DE0210504D52B216A46117301214A
:1035100003E0E10711D02021F7E70CAF0C9114E094
:103520000A200190109901C910916102490F0329E5
:1035300000D180B2042900D1C0B20021EDE7019989
:10354000FCF70CFE30317F1E39700028F7D104A83B
:10355000C01B20300190600704D501200004844383
:10356000009801E0012000900199884201DD401A95
:1035700000E00020411800900C9809180298401AA9
:103580000290E00306D42146129B119A029800F0A3
:1035900043F8861900200D9008E003A9085C129AF0
:1035A000119990470D98401C761C0D900C998842FB
:1035B000F3DBE0030CD52146129B119A029800F030
:1035C0002BF8861904E0129A302011999047761C46
:1035D0000099481E00900029F5DC05E03878129A21
:1035E0007F1C11999047761C0199481E0190002973
:1035F000F4DC6BE709280100F8B5044600251E46F7
:103600001746880404D405E039462020B0476D1CD5
:10361000641EF9D52846F8BDFFB50446002581B0E3
:103620001E46C80301D5302700E02027880404D5B2
:1036300005E038460399B0476D1C641EF9D528464D
:1036400005B0F0BD0A68531C0B6010707047000095
:103650008CB000F0BAFB6B49089008462022B838BD
:10366000FEF7FAFF6748B8380268136A10210B4367
:103670001362006802680A430260634D634E0027CC
:10368000E87800287ED05F487838408B2021081ADF
:10369000C4B25C48B838FEF78DFE062C02D0202C50
:1036A00035D095E006225AA15648FCF7A2FD002825
:1036B000F7D1544828212030FCF790FD00F08CF918
:1036C000039000F0E3F80290022000F0B1F90190BD
:1036D000012000F0ADF9009000F0B8F8044668460B
:1036E00082890389019900980190464803930492C6
:1036F0000291009448A34AA24AA12030FFF7BAFDE4
:10370000002210213046FDF76CFF28225AE00022EB
:1037100020213046FDF765FF3A4C2078522802D030
:10372000572855D112E0E07F522851D13548202149
:103730002030FCF753FD3348522120300170014600
:1037400014226839401CFCF730FD31E0E07F572837
:103750003ED12C4820212030FCF740FD294857213C
:1037600020300170FDF782FEFF200002069001204C
:103770000790059709A905A8FDF7E0FD1422611C33
:10378000204800E02BE04838FCF70FFD00241D48DE
:10379000A10048384258FF231B02C9180023022009
:1037A000FDF726FE641CE4B2052CF0D3FDF716FEEF
:1037B000002210213046FDF714FF00212248FEF7B9
:1037C0008BFD20220F4920310846D838FEF789FFAB
:1037D0000C49EF7008462022B838FEF73DFF6421FF
:1037E00008A800F0E5FA00211748FEF79DFD012228
:1037F00010213046FDF7F5FE012220213046FDF76D
:10380000F0FE3DE71C0400200800002000040048F2
:10381000424541434F4E0000312E322E370000000A
:10382000412E320042202573202573202530336439
:103830002025303464202530346420253034642041
:103840002530326420000000B402002010B50A4880
:10385000406BFCF76FFE0022084BFCF78BFD00224B
:10386000074BFCF787FD074A074BFCF7EBFDFCF71E
:1038700099FE80B210BD00000800002000C8A940D9
:1038800000A06B4033333353F8A13C41F8B5504CA2
:103890000020504D2080012189022846FDF79CFE22
:1038A0002178002875D0BF200140217004212846CE
:1038B000FDF792FE217800286ED0DF2001402170B4
:1038C00002212846FDF788FE2178002867D0EF20E6
:1038D00001402170012149032846FDF77DFE0226A3
:1038E000002860785ED0FD21084060700121090346
:1038F0002846FDF771FE0028607855D0400840004A
:1039000060700121C9022846FDF766FE0028207874
:103910004DD04006400E20700121C9032846FDF716
:103920005BFEF7270028607844D0384060700121A2
:1039300089032848FDF750FEFB25002860783CD01D
:103940002840607009204021C006FDF745FE002890
:10395000207835D0FD210840207009208021C00644
:10396000FDF73AFE002820782CD028402070012155
:103970001848FDF731FE0028207826D03840207006
:103980001348801E41886846018088B2F8BD00E077
:1039900002E04020014388E7202001438FE7102008
:1039A000014396E73043A0E701210843A8E78021BF
:1039B0000843B0E708210843B8E704210843C0E7FB
:1039C0003043C9E704210843D0E708210843D6E77C
:1039D000020000200004004838B5134C0020134DAD
:1039E000208080212846FDF7F7FD002814D020789C
:1039F00041084900217040212846FDF7EDFD0028CF
:103A000020780DD0FD21084020700748001F8188D4
:103A10006846018088B238BD217801200143E9E77A
:103A200002210843F0E700000400002000140048D1
:103A3000F8B50022244C254D2549012802D0022842
:103A40000DD03EE0C86B009000283BD00220205EE5
:103A5000FCF770FD064600200F46205E0BE0086C68
:103A6000009000282ED00A20205EFCF763FD064659
:103A700008200F46205EFCF75DFD00222B46FCF778
:103A8000E1FC04460D460098FCF754FD0022114B62
:103A9000FCF770FC0022104BFCF7D4FC00220F4B0B
:103AA000FCF768FC00220E4BFCF756FC22462B4626
:103AB000FCF760FC32463B46FCF7AAFBFCF74EFDE8
:103AC00002B21046F8BD0000D403002000408F4031
:103AD0000800002000C8A94000FEAF400000E43FFD
:103AE00000406F4070B5012149021548FDF774FD93
:103AF00000281DD00024134E012149033046FDF754
:103B00006BFD002816D0002501212543890330468E
:103B1000FDF762FD00280FD0002401212C43C903CA
:103B20003046FDF759FD002808D00020204370BD25
:103B30000124E0E70225E7E70424EEE70820F5E7A3
:103B4000000400480008004838B501220925540245
:103B5000ED0621462846FDF744FD0120FDF7DFFB79
:103B6000002221462846FDF73CFD054C0020208020
:103B700000F008F821886846018088B238BD00004E
:103B800000000020F8B5092605460121F6060022AE
:103B900089023046FDF725FD0124E40327110022A8
:103BA00039463046FDF71DFD254201D0002200E0D8
:103BB0000122FF2101313046FDF713FD0122394674
:103BC0003046FDF70EFD6408E9D10122910230462E
:103BD000FDF707FDF8BDEFF30580002800D00120B8
:103BE000704700009EB0FDF74BFDFF211422090233
:103BF0005648FCF7DAFA55480023C35E7D21544A43
:103C0000C900002B01DD934200DB01800223C35E6B
:103C100000248B4200DB44800823C35E002B01DDBF
:103C2000934200DB01800A22825E8A4200DB4481EB
:103C3000FEF77CFFFEF7D6FD46484169012211439D
:103C400041614069032110401C9000220920FDF7CA
:103C50008FFD0920FDF782FDFEF7D6FEFEF770FD11
:103C6000FEF78EFE3D483C490160FF21E131846052
:103C7000416064210461C16080218161FEF77AF9AD
:103C8000002800D0FEE7FEF735FE344834491038EE
:103C9000016006214160FF212D31C1608160FDF787
:103CA000ADFC002800D0FEE7FEF7CEFE2B485C38C6
:103CB000FCF798FF294800214030FEF70DFB23490F
:103CC0002648052214315C38FDF706FA2348002106
:103CD0008030FEF701FBC820FDF721FB1F480021C3
:103CE0008030FEF721FB1D481038FDF7B9FC1C227F
:103CF0001C496846FCF759FA0021684600F070F844
:103D0000194C184920621C221C3107A8FCF74DFAF7
:103D1000002107A800F064F8124960621C223831C3
:103D20000EA8FCF742FA00210EA800F059F80D4940
:103D3000A0621C22543115A8FCF737FA002115A8FF
:103D400000F04EF8E06200F03BF8FEE7D4030020FC
:103D500088130000001002400020004034020020C0
:103D600000300040544700080800002001460020B1
:103D7000842900D0C81C704770B505460A48002247
:103D80000A4C0EE0AB5C58400023C60702D0400846
:103D9000604000E040085B1C9BB2082BF5D3521C2E
:103DA00092B28A42EED370BDFFFF000001A0000076
:103DB00010B5002900D1012100F026FB002010BD24
:103DC00010B500F04FFB002010BD10B5FFF703FF4A
:103DD000002802D000F004FC10BD00F0FBFB10BD79
:103DE0003EB5044608200D46205EFFF7BFFF6B4638
:103DF000A269616907C32B4622692168606800F0E7
:103E0000BBFB3EBDF8B5134C0F46E668054620687F
:103E1000001D00F073FA681C07D1002F05D021683F
:103E20000D48091D00F0ACFAF8BD20687519456011
:103E30002168B54204D2A06B091D00F089FAF8BDD3
:103E4000606B091D00F084FAA06A8542F7D2A56272
:103E5000F8BD000058000020680C0020F8B50546A9
:103E600000F09AFA264CA068401CA0602068254FFC
:103E7000002803D06069002827D02CE02560A068C6
:103E8000012828D1002614207043C01900F052FAEE
:103E9000761C042EF7D31B48503000F04BFA19481B
:103EA000643000F047FA1748783000F043FA1548BC
:103EB0008C3000F03FFA1348A03000F03BFA114874
:103EC000503060631430A06305E02068E96AC06A7E
:103ED000884200D82560606A401C6062E86A2169F7
:103EE000884200D9206114214843C019291D00F0DF
:103EF00047FA00F05DFA6069002800D02068F8BD3C
:103F000058000020C80B002070B5104D104C15E073
:103F100000F0D4FA2868002814D000F0B3FB00F0B9
:103F20003BFAE868C068001D00F0E8F9A068401E90
:103F3000A0606068401E606000F03AFA6068002887
:103F4000E6D170BD00F09EFBF8E70000540C0020A5
:103F500058000020FFF7D8FF00F04AFAFAE7FFB553
:103F600081B00C9C9000236B001F1818C6080A9D96
:103F7000F600700701D072B6FEE723180A5C203302
:103F80001A750A5C002A02D0401C1028F5D320467E
:103F9000403000270090C770042D00D30325E56250
:103FA000A764201D656400F0D0F92046183000F0A9
:103FB000CCF924610420401B6462A061E76400988E
:103FC00007743046049A019900F022F820600B989B
:103FD000002800D0046005B0F0BD00000648416B29
:103FE0000968002905D0416BC968C96849688162C0
:103FF00070470021C943FAE75800002003480068D1
:10400000401C72B600D0FEE7FEE70000540000201E
:1040100010B50124031F24061C601B1F1960191F03
:10402000024B0B60143940380A6010BDFD3F000898
:1040300086B0FFF7CAFE0490202299499948FEF7FE
:104040000BFB98480268136A10210B431362006847
:1040500002680A430260944D944EA878002873D0F9
:10406000002220213046FDF7BCFA8E484030418BBB
:104070002020401A87B28B48FEF79CF9FFF732FDEB
:104080000446082F70D13A4689498548FCF7B1F8B3
:10409000002801D1012C08D085493A4608318048D2
:1040A000FCF7A7F800282CD02DE07D48694602785F
:1040B0000A7040784870022088707B4A0020C870DF
:1040C000121D117852788B078806DB0FC00F5B003A
:1040D00018434B06DB0F9B001843CB06DB0FDB00BE
:1040E0001843D307DB0E18434B07DB0F92075B0126
:1040F000D20F92011843C9091043C9010843694608
:104100000CE0012C7DD06A493A4610316448FCF736
:1041100070F800280DD00EE000201AE0087105218B
:104120006846FFF729FE69464871000A8871072230
:1041300097E0012C6ED05E493A4618315848FCF79A
:1041400058F8002811D012E09AE0FFF771FC00281F
:10415000E2DB534A694613780B7052784A700222A8
:104160008A700212CA70D9E783E0022C08D0504945
:104170003A4620314A48FCF73CF8002836D037E070
:1041800047486A460178117040785070022090705C
:104190000020D070444A121D10785278830781069F
:1041A000DB0FC90F5B0019434306DB0F9B0019436C
:1041B000C306DB0F1943D307DB0E19434307DB0F9D
:1041C00092075B01D20F194392011143C0090143C9
:1041D0006A46117105216846FFF7CEFD6A465071A7
:1041E000000A9071072269463BE00AE0022C08D0E1
:1041F0002F493A4628312A48FBF7FBFF002802D016
:1042000003E00120A1E7022C04D0012C04D0022CF1
:104210000BD02EE0022098E72148007801280CD02E
:104220000B280AD00C2808D023E01D48007802286B
:1042300003D00D2801D00E281BD1194869460278F9
:104240000A704078802108436946487001208870D0
:1042500003216846FFF790FD6946C870000A08719F
:1042600005221048FEF73DFA002210213046FDF7E6
:10427000B8F90020A870202209490A48FEF7ECF995
:10428000142104A8FFF794FD012220213046FDF7F8
:10429000A8F9012210213046FDF7A3F9DDE6000060
:1042A000FC030020F4020020080000200004004865
:1042B00024470008F8B506460C46FCF713FA051E1D
:1042C0000F4600D00120014349000B484908411A1C
:1042D000C90F0DD0002E01D0012100E000210C43B8
:1042E00061004908401AC00F02D10120FEF7FCFF0F
:1042F00028463946F8BD00000000F07F4368826818
:1043000001699A60836842685A604A68824201D1B2
:1043100082684A60002202610868401E0860704797
:10432000034B03601846543008604020106070470B
:10433000100A00200146083100224160D243C160CA
:1043400082600161002101607047002101617047B6
:1043500030B50B685A1C02D00246083202E00269EE
:1043600004E02246546825689D42FAD953684B60A0
:1043700099608A60516008610168491C016030BD24
:1043800042684A6093688B609368596091600861E5
:104390000168491C0160704772B604480168491CF5
:1043A0000160BFF34F8FBFF36F8F70475400002041
:1043B00005490868002804D0401E086000D162B694
:1043C000704772B6FEE700005400002010B50648A2
:1043D0007D21C9000068FBF7C1FE0449401E486109
:1043E0000720086110BD00004C00002000E000E044
:1043F0000120044900074860BFF34F8FBFF36F8F60
:104400007047000000ED00E070B50D46040007D0D5
:10441000002D07D0124A106B002805D072B6FEE7B7
:1044200072B6FEE772B6FEE700F048F8D26823687D
:104430005919934204D98B420AD9914202D807E014
:104440008B42FAD9881A21600021FFF7DBFC00E0DB
:10445000216000F017F9002801D1FFF7C9FF70BDF6
:104460005800002010B586B00024039405AA04A9C2
:1044700003A80494FFF754FF049903980094019152
:104480000290002309A10B48059A00F075F80A492B
:104490000028C86208D072B60020C043886201209C
:1044A0004861CC6000F03EF806B010BD49444C4570
:1044B00000000000553F0008580000200248016B32
:1044C000491C0163704700005800002010B51348D4
:1044D000016B002902D00121C16110BD0021C16121
:1044E00001690F4A02E0002915D0491E14234B43ED
:1044F000D358002BF7D014234B439A185368144613
:104500005B6808345360A34201D15B685360DA688A
:104510000260016110BD72B6FEE700005800002085
:10452000C80B002010B50948016AFF22120411438C
:104530000162016A120211430162FFF747FF044959
:1045400000200860FBF7C0FD002010BD00ED00E07A
:104550005400002010B5FBF7CBFD044600F046F8F0
:10456000002803D001200349000748602046FBF7DC
:10457000C3FD10BD00ED00E0F0B585B007460B9D12
:104580000C9C0A98002D11D0002C11D02563002519
:1045900004AE00900196039502943846FFF7DFFCC5
:1045A0002046FFF75BFC049805B0F0BD72B6FEE74D
:1045B00072B6FEE706484169002904D0006B002866
:1045C00003D0002070470120704702207047000090
:1045D000580000200148C0687047000058000020C3
:1045E0000148C0687047000058000020F8B500205E
:1045F000224C0090206B002804D0A069401CA061D0
:104600000098F8BDE668761CE6600ED1606B006825
:10461000002801D072B6FEE7606BA16B6163A063F6
:10462000206A401C2062FFF7D9FCA06A8642E7D3CB
:10463000134F606B0068002807D0606BC068C568C6
:104640006868864204D2A062DAE70020C043FAE735
:10465000281DFFF753FEA86A002803D0284618300B
:10466000FFF74CFEE86A2169884200D920611421D5
:104670004843C019291DFFF783FEDAE758000020E0
:10468000C80B0020F8B50025244C0095206B0028AD
:1046900008D0FFF781FE206B401E2063206B0028AE
:1046A00002D037E072B6FEE7A0681D4F0126002851
:1046B0001CD12FE0F868C56828461830FFF71EFEA9
:1046C000281DFFF71BFEE86A2169884200D9206196
:1046D00014214843124978394018291DFFF750FE2C
:1046E000E86A2168C96A884200D3E6613868002810
:1046F000E0D1002D01D0FFF771FCA569002D08D095
:10470000FFF774FF002800D0E6616D1EF8D100208D
:10471000A061E069FFF74CFE0098F8BD580000204A
:10472000400C0020010300000001840A0B03000478
:104730000001C5610C0300040001C4D6020300009F
:10474000000184390D0300040001C5070E030004B5
:104750000001C534EC470008D12A0008FEFF000024
:104760000000000040000000C0040020C005002040
:10477000DC47000831400008000000000000000095
:10478000400000001406002014070020084800081C
:104790001D090008FFFF00000000000040000000AD
:1047A0006807002068080020F84700085136000814
:1047B000FEFF00000000000040000000BC080020D8
:1047C000BC090020000000000000000001020304FA
:1047D00006070809000000000102030472656775FE
:1047E0006C617253616D706C650000006465666198
:1047F000756C745461736B00636F6E6669675061AA
:1048000072616D65746572004C6564446973706CA7
:104810006179000034480008000000209800000082
:10482000CA320008CC48000898000020E80F0000B9
:10483000DA32000800000000000000000000000064
:104840000000000000000000000000000000000068
:104850000000000000000000000000000000000058
:104860000000000000000000000000000000000048
:104870000000000000000000000000000000000038
:1048800000127A0000000000AAAAAAAA00000000F4
:104890000000000000000000000000000000000018
:1048A0000000000000000000000000000000000008
:1048B00000000000000000000000000000000000F8
:0C48C000000000000000000000000000EC
:04000005080000B53A
:00000001FF
