:020000040800F2
:100000008010002041010008612A00085F2A0008D2
:1000100000000000000000000000000000000000E0
:10002000000000000000000000000000692A000835
:100030000000000000000000FF000008B92A0008CE
:10004000530100080000000053010008530100089C
:100050005301000853010008530100085301000830
:1000600000000000E90800085301000853010008DF
:10007000530100085301000853010008000000006C
:1000800053010008AD2B0008000000009D2B000864
:1000900053010008530100085301000853010008F0
:1000A0005301000853010008530100084D300008B7
:1000B000793000080348854600F054FB00480047AB
:1000C000DD3A000880100020084B196808682030CD
:1000D00080F30988022080F31488BFF36F8F3FBC40
:1000E000AE4608BC04BC62B61847000058000020A9
:1000F000EFF3108072B6704780F310887047EFF30B
:1001000009800E4B1A6820381060F0C044464D46F6
:1001100056465F46F0C008B572B604F079FA62B68A
:100120000CBC116808681030F0C8A046A946B24659
:10013000BB4680F309882038F0C8184758000020D3
:100140000448804704480047FEE7FEE7FEE7FEE775
:10015000FEE7FEE7412B0008B500000830B50B466E
:10016000014600202022012409E00D46D5409D4291
:1001700005D31D469540491B254695404019154617
:10018000521E002DF1DC30BD10B5202A04DB0846DC
:10019000203AD040002110BD0B46D340D04020244F
:1001A000A21A91400843194610BD03460B439B0712
:1001B00003D009E008C9121F08C0042AFAD203E0DC
:1001C0000B780370401C491C521EF9D2704730B5A1
:1001D00005460020034600E05B1C934205D2EC5C20
:1001E000C85C201A01D1002CF6D130BDF0B507460D
:1001F0000846584087B0C00F049048000E4659008A
:1002000040084908BC1A884105D2384631461E4686
:1002100017460B4602465800400810434CD0300D9C
:10022000039040055900400D490D0590401A029079
:10023000402872DA18030121000B090508430190D8
:1002400004980092002805D001995242002088416C
:1002500000920190029840210A1A0199009800F03A
:10026000ADF905460C466B4607CB00F0B7F9C0194F
:100270007141039A0E0D0023D71756401A467A4053
:10028000164344D0049A002A2DD0029A012A039AD8
:1002900015DC1205C01A914101263605001C71417A
:1002A000D20F059ED2070093019202962A4623465A
:1002B00000F0B4F907B0F0BD38463146FAE716054C
:1002C000224A0F46B218C01AB74101210905001C85
:1002D0004F4100187F41114618187941E20F104331
:1002E0006D19644113E0E2076D0815436408C20705
:1002F0001443039A01261205C01A91413605001CC9
:100300007141CE07400830434908C01851412A4680
:10031000234600F076F9CDE7FFE70498012240007C
:10032000C117121A00238B4104983146C417381A9A
:10033000A141EEE730B40124E407634030BC55E747
:1003400030B40124E407614030BC4FE70000E0FF17
:10035000F0B51FB488B00B9909980024484009995A
:10036000C00F490049080991C0070B990090490046
:1003700049080B9109990898A64608431CD00B9987
:100380000A98084318D0099801244000420D4800FB
:10039000410D099824050003000B204309900B9898
:1003A0000003000B20430B9050181C4940180022FA
:1003B00001901446104605E0002001460DB0F0BD46
:1003C000032801DA034600E003239C46C11A0AAE63
:1003D0000AE05F0008ADED5B4F00F75B7D4300274F
:1003E000AA187C41491C5B1E6145F2DD410004AB4B
:1003F0005A522104120C0A43240C401C0828DFDB4B
:10040000019802900099704601910090059B049A12
:100410000799069800F002F9D0E700000DFCFFFFF5
:10042000F0B50C465C4085B0E40FE40703944C0043
:100430000026640859009446490802460296224361
:1004400021D062460A431ED06200570D4A000E03B7
:100450002303550D012402462C492405781B1B0B50
:10046000360B401823432643614600901C46501A21
:10047000B44103D30098401C009002E09218009809
:100480005B41002803DA0020014605B0F0BD0020E2
:10049000012109050746864611E064461D46141BE6
:1004A000B54106D36546521BB341744607430C431E
:1004B000A646CD0740084908284392185B410546E7
:1004C0000D43EAD11046184313D0604619465040F8
:1004D0007140084306D06046101AB34106D201228B
:1004E000002306E000220123DB0702E00122D243C1
:1004F0005310009874460105381C6141029C039D0D
:100500000019694100F07DF8BFE70000FD0300001D
:100510000EB5C217C10F5040CA0740180021054B45
:100520000293019200910A460B4600F077F803B05F
:1005300000BD00003304000070B5CD0F4A00090370
:100540000123090B1B0519430B4BED070024520D2A
:100550009A4201DA002070BD074B34339A4203DC23
:100560009A1AFFF711FE02E00449511888402C4303
:10057000F1D0404270BD0000FF030000CDFBFFFF43
:100580004A0009030123090B1B051943094B10B548
:10059000520D9A4201DA002010BD064B34339A42C4
:1005A00003DC9A1AFFF7F0FD10BD0349511888408B
:1005B00010BD0000FF030000CDFBFFFF10B5202A97
:1005C00004DB0146203A9140002010BD91402023D9
:1005D0009C1A0346E3401943904010BD10B5202AF1
:1005E00006DBCB170846203A1041C1170B4306E043
:1005F0000B461341D0402024A21A914008431946CB
:1006000010BD10B5002B08DA0024401C614192187F
:100610005B411A4301D14008400010BDF0B51FB442
:1006200082B005460C0003D0084602F051FD02E0FE
:1006300002F04EFD20300246009021462846FFF78A
:10064000BDFF049B059A04460F4618431143084317
:1006500014D0184610431BD0009840210A1A18469F
:100660000599FFF791FD05460E46009A05990498F5
:10067000FFF7A4FF084305D0012004E020463946D7
:1006800007B0F0BD0020C11705430E432C4337438C
:1006900000990E986305401A7905E40A00220C437C
:1006A000FD0A0A3002D500200146E9E701051019CC
:1006B00069410C9C0D9D00196941FFF7A2FFDFE71E
:1006C000FEB500231A461B1A8A4103DB00200146AF
:1006D00003B0F0BD4A000D0301212D0B0905520D99
:1006E0000D43D10702D100186D41521E5110FF3148
:1006F000FF310131002704463E46384600970191FC
:100700000246012100200905FFF73EFDC319714192
:10071000F818324684468E464A4161462846611A98
:10072000904104D36046241A954176461F46241909
:1007300000986D41401C00903428E1DDF9193046E5
:100740007041091BA84103D20022D243134601E0A5
:100750000022134601980105381C7141FFF751FF33
:10076000B6E70000064C0125064E05E0E36807CC1D
:100770002B430C3C98471034B442F7D3FFF79EFC50
:100780005C4B00087C4B000810B50146406A426C87
:1007900050231A420AD1416C012252021143416492
:1007A0000168CA681205920F05D020E0C06B026B89
:1007B0000846904710BD026A002A18D10A6812073D
:1007C00015D58A6853070122002B09DB4B680C24DE
:1007D000A3434B60416C130299431143416406E00B
:1007E000416C202319434164816C1143816400F002
:1007F000B7FA10BD10B5406A416C40221143416404
:10080000816C04221143816400F045FB10BD10B5DA
:10081000406A00F03FFB10BDF0B5044683B00020F5
:100820000090206881688907890F012905D1016836
:10083000C90748D1C168090445D48168264A1026F1
:100840001140012500292ED1816829438160244867
:1008500022490068FFF782FC00900190002815D023
:100860002049884232D8002826DD284002D000994D
:10087000491E00910199401C491C884206DA009AE1
:10088000801C521E521E00928842F8DB00F0E4FEEB
:10089000074620680068C043C00714D000F0DCFEA3
:1008A000C01B02280AD9606C30436064A06C2843E6
:1008B000A064012003B0F0BD0020DBE720680068E1
:1008C000C043C007EAD1002003B0F0BD0098401E2D
:1008D0000090FCD1DAE700001700008040420F00D2
:1008E0004C000020FFFFFF7F10B5024800F04EFCD7
:1008F00010BD00007C04002082B003F078FB019062
:1009000003F07AF86E4CFD27F726009002F0EEFE19
:100910006C4D6D49A880686B4118FF202A308142D8
:1009200003D8207801210843207002F087FF654931
:10093000C88000206946088020786A46C10711787F
:1009400003D0022211436A4600E03940117041068B
:100950000DD5127804210A4369460A705107C90F60
:10096000CB0069460A7832401A430A7010E01178C9
:10097000C206D20F3140D20011436A46117011787D
:10098000FB2211408206D20F920011436A46117079
:1009900061788A070FD56A461078102210436A469C
:1009A0001070C006C00F43011078DF2210401843BA
:1009B0006A4610700FE06B461A78DF231A40C009B0
:1009C000400102436B461A701878EF221040CA07A4
:1009D000D20E104318706846007842064807520E3F
:1009E000C00FC0010243684602700278BF20024077
:1009F0000807C00F800102436846027041783348FF
:100A000039400278D007800F014368464170407832
:100A1000410849009007C00F014368464170E96BE7
:100A20002B48FF39F139814269464A7803D80821B9
:100A30000A43694600E032404A70296CFF39F139B7
:100A400081426946487804D80421084369464870C1
:100A500003E0FB21084069464870012002F01AFFBC
:100A60001C4D0621695E884214DB012002F012FF52
:100A70000421695E88420DDC022002F00BFF0E218A
:100A8000695E884206DB022002F004FF0C21695EE9
:100A9000884206DD684601780120014368460170FE
:100AA00005E0684600784108490068460170008802
:100AB00002F0E6FF642101A803F08CFA26E70000AB
:100AC0000C00002008000020AEFDFFFF0E000020FB
:100AD000C2070000D403002070B5044600F0BCFD3E
:100AE0001A4D0646E868C0070DD0601C08D0002CDF
:100AF00004D000F0B1FD801BA04201D9032070BDDD
:100B0000E868C007F1D1E868800601D52020E860D8
:100B1000E868C00602D4E868400715D5E9680020F7
:100B2000CA060B4904D5C86902221043C8611020C7
:100B3000EA68520705D5CA6901231A43CA6104212C
:100B40000843E860012070BD002070BD0020024015
:100B5000A80B0020F8B50546044640352878002645
:100B6000012808D001202870206881688907890F32
:100B7000012908D101E00220F8BD0168C9073BD175
:100B8000C168090438D4616CFF220132914302220A
:100B900011436164C1688907890F0091C1688908A0
:100BA0008900C1602068816892071143816000F06C
:100BB00053FD074620688068002812DA00F04CFDDB
:100BC000C01B022809D9606C022188431021084308
:100BD0006064002028700120F8BD2068806800282B
:100BE000ECDB2068C168009A1143C160606C80082A
:100BF0008000401C606404E0606C20210843606455
:100C00000126002028703046F8BD0000F0B583B002
:100C100000250446403400952278012A39D001236A
:100C200023700268966876077CD4484F4E68BE42AF
:100C300065D0966A0F78BB401E4396620123826B93
:100C40001B079A421FD0012A1DD0022A1BD0032A5B
:100C500019D0042A17D0052A15D0062A13D0072A3E
:100C600011D002688B6856697607760FB3420AD0B6
:100C70005369DB08DB005361006842690B7A5B074C
:100C80005B0F1A4342610A68102A05D0112A03D06B
:100C900051E0022003B0F0BD2D488368102A07D030
:100CA00001229205134383600868102803D042E0B4
:100CB0000122D205F6E7284826490068FFF74EFAD8
:100CC0000A2148430090019035D02449884237D802
:100CD000002812DDC007C00F02D00099491E009104
:100CE0000199401C491C884225DA009A801C521E3A
:100CF000521E00928842F8DB1DE00020F0E7906A67
:100D00000E78B340984390620868102801D01128EB
:100D100011D10F498A68102805D00120800582432F
:100D20008A6008E002E00120C005F8E7416C20225B
:100D300011434164012500202070284603B0F0BD16
:100D40000098401E0090FCD1F5E700000110000063
:100D50000027014040420F004C000020FFFFFF7FB2
:100D600070B5434C0022A256424D5000295EA36844
:100D7000521C5E1A40490B881BB22B529B193F4DE7
:100D8000A3602B5E2669F61A0B891BB22B529B19A6
:100D90003B4D23612B5E6669F61A8B891BB22B5281
:100DA0009B19384D63612B5EA669F61A0B8A1BB23C
:100DB0002B529819A061486833494018E1694043B3
:100DC000401851B2E0612170202920DB00252570F8
:100DD00061782E4E4900715EE268511AE160C117D8
:100DE000C90E08184011FFF793FB03F019FBFFF73A
:100DF000A3FB01B260784200B152E268401C89183E
:100E0000C0B2E561E1606070202800D36570A06821
:100E10001F4DC117C90E081840112063E06809264C
:100E2000C117C90E0818401160632069F606C11782
:100E3000C90E08184011A0636069C117C90E0818CF
:100E40004111E163A069C217D20E1018401120644D
:100E5000A94204DB00220821304600F0F6FB206C9A
:100E6000A84204DB00220221304600F0EEFB70BDF8
:100E70000800002098000020E8030020180100204E
:100E80005801002098010020F4F7FFFFD80000204F
:100E90008A0E000070477047F8B500250446002808
:100EA00003D0606C002802D008E00120F8BD0020CB
:100EB000A06440210855204600F0A8F8606C10227C
:100EC000C006002870DB2068816849076CD4616C1B
:100ED0001301994302231943616481688907890FCB
:100EE000012905D10168C9070FD1C16809040CD4D3
:100EF000C16818239943A3681943C1602068016938
:100F0000636889008908194301612068C1683D4B05
:100F10001940C160A069E1698003C9030843216ADF
:100F20004B031843636B012B02D001231B0300E02A
:100F300000231843E36818432369022B09D00023D8
:100F40001843236B666A5B0018430123012E02D00D
:100F50000AE00423F4E7002927D0616C20263143FE
:100F60006164A16C1943A164A16A0E46FF3EC23EB2
:100F700002D0E66A314308432168CE680643CE605A
:100F80000126A16B3607B14213D0012911D00229E5
:100F90000FD003290DD004290BD0052909D006292B
:100FA00007D0072905D010E028E0012109040843F3
:100FB000DAE721684E69F608F6004E6121684E694D
:100FC000278F7F077F0F3E434E612168C9680E4E11
:100FD0003140814207D10020A064606C800880000D
:100FE000401C606408E0606C022188431043606428
:100FF000A06C1843A06401252846F8BD606C10431E
:101000006064F8E71902FEFFE7FF3F83F0B505468D
:101010000068184987B088422AD117488169471566
:101020003943816180690026384005903520009061
:1010300003200190092069460296C00600F054FA88
:101040000F4C0E486660A660206080202761E0603B
:10105000000160612020E661A061204600F0E8F810
:10106000002803D0762107A002F01CF8EC6365622B
:1010700007B0F0BD0024014000100240080002400B
:101080007C0400202E2E2F5372632F73746D333225
:10109000663078785F68616C5F6D73702E630000F6
:1010A000F7B5044600680025806840073ED4264610
:1010B0004036307801280AD001273770E0690128CE
:1010C00008D02046FFF7A8FB050003D02FE0022040
:1010D00003B0F0BD606C17490840FF21013108439F
:1010E00060640020A0643070E16B13488862E16B9B
:1010F0001248C862E16B1248086321681C2008602E
:10110000206841681022114341602068C16839435A
:10111000C1602168E06B4031029B019A00F0C0F889
:101120002068816804221143816000E0022528467E
:1011300003B0F0BDFEF1FFFF890700080F080008AB
:10114000F507000870B50024014620314A78022ACC
:1011500003D004218163012416E0026813680E2580
:10116000AB431360026813685B085B0013600122E5
:10117000056C1346AB40C56B6B604A7000220A7069
:10118000416B002900D08847204670BDF0B4C16B88
:101190000D6801680C680422066C1346B3402B42AC
:1011A00010D063070ED50B689B0602D40B689343DF
:1011B0000B60016C8A40C16B4A60C16A002935D15D
:1011C000F0BC70470227B74002462F40012320326F
:1011D000002F15D0A70713D50C68A40604D40C68FB
:1011E0000A25AC430C605370036C02219940C36B19
:1011F000596000211170816A002917D1F0BC704735
:101200000827B7402F42F9D02407F7D50C680E25E0
:10121000AC430C60046C1946A140C46B61608363ED
:10122000537000211170016B0029E7D0F0BC084712
:10123000002801D10120704770B5044602202146E4
:1012400020310D464870226811681248A368014099
:10125000606826691843E368334318436369184399
:10126000A3691843E3691843084310600A492068DA
:1012700040181421FEF772FF800020640748E063E5
:101280000020A062E06220636063A06301216970B6
:10129000287070BD0FC0FFFFF8FFFDBF00000240C7
:1012A000F0B404469446203422780026012A0AD05D
:1012B0000125257062780027012A07D027700226B1
:1012C0003046F0BC7047F0BC0220704702226270CA
:1012D000876302681468640864001460046C2F4615
:1012E000A740C46B62466760046863604368102B64
:1012F00003680AD099600168CA60C16A0029016860
:101300000A6806D00E231A430AE09A600268D16088
:10131000F3E70A231A430A6001680A6804239A4320
:101320000A600068016829430160C9E731B500F02F
:1013300093F9009C0546601C00D0641C00F08CF9F9
:10134000401BA042FAD338BDF3B5064681B0012058
:1013500000902E48017E01290CD0012101763068D1
:101360002B4D2C4C012808D02846FFF7B5FB002850
:101370001AD045E0022003B0F0BD2846FFF7ACFBD1
:1013800000283DD12149C8612069042630432061ED
:1013900020694021084320612846FFF79DFB00900B
:1013A0002069B04320612BE000210298C94301600D
:1013B000B068756880024019A84221D902271349F4
:1013C0000020C8612069384320616561206940219F
:1013D000084320610E48FFF77FFB00902069B84367
:1013E00020610098002802D00298056008E00120E2
:1013F00080022D18B068810270680818A842DED8F3
:10140000024900200876009803B0F0BDA80B002028
:1014100050C30000002002400348016980221143AC
:10142000016100207047000000200240F0B51FB4A9
:10143000054621480024017E82B01646012907D0C6
:10144000012707761D48FFF747FB002803D02DE052
:10145000022007B0F0BD012D1ED0022D1ED00420A9
:101460000090174D039861000F182201304605992E
:10147000FEF78AFE104A0021D16129690122114339
:10148000296138800D48FFF727FB29694908490081
:10149000296100280AD104E0012000E00220009028
:1014A000DFE7641C0099E4B28C42DBD3024A0021DE
:1014B000117607B0F0BD0000A80B002050C300005B
:1014C0000020024005480169090605D5044941602C
:1014D000044941600020704701207047002002400D
:1014E00023016745AB89EFCD0B680022002B6FD03D
:1014F000F8B401270B6897403B406AD04C68022C37
:1015000001D0122C0ED1D408A4002418A446246AB9
:101510005507ED0E0F26AE40B4430E69AE4026438C
:1015200064462662056856000324B440A446A543D9
:101530000C79A407A40FB4402C4304604C68012C20
:1015400005D0022C03D0112C01D0122C0FD18568AC
:101550006446A5432C46CD68B54025438560456863
:101560000C79BD43E406E40F94402C434460C46806
:101570006546AC438D68B5402543C5604C68E400C2
:1015800049D5294CA56901263543A561A46995086B
:1015900034400094254CAD002F19BC6895072E0FE0
:1015A0000F25B540AC430925ED06A84201D1002521
:1015B00011E01F4DA84201D101250CE01D4DA842AC
:1015C00001D1022507E01C4DA84203D1032502E00A
:1015D00028E020E00525B5402543BD60174C25686F
:1015E0004E689D43F60300D51D43256065684E682F
:1015F0009D43B60300D51D436560A5684E689D43B5
:10160000F60200D51D43A560E5684E689D43B6020D
:1016100000D51D43E5600B68521CD34000D068E73D
:10162000F8BC704770470000001002400000014005
:101630000004004800080048000C00480004014075
:101640000069084000D001207047002A01D0816164
:1016500070478162704700000148006870470000D1
:1016600050000020002801D10120704770B50446C9
:101670002168144808602168134808602068616880
:1016800041602168A0688860FFF7E6FF0546206892
:10169000C06800280AD0FFF7DFFF401B272801D9C8
:1016A000032070BD2068C0680028F4D1206802695A
:1016B000E1688A4201D0016101E004490160002033
:1016C00070BD0000CCCC000055550000AAAA000057
:1016D000006802490160002070470000AAAA0000CB
:1016E00002480168491C016070470000500000205A
:1016F00010B506480168102211430160002000F077
:1017000007F800F041F8002010BD00000020024062
:1017100000B5014687B00022112000F061F81120C9
:1017200000F054F81348C26910210A43C261C0692D
:101730000840059004A9684600F0D8F900F0F8F9CF
:101740000D49FEF70BFD0E490C4A0A600D4A401E7A
:10175000CA604860002008618860084600F0D9FC33
:10176000002802D0012007B000BD054800F012FD9E
:1017700007B000BD0010024040420F0000100040C2
:10178000640B0020E703000008B50F4881690122BF
:1017900011438161816911400091C26901040A43CA
:1017A000C261C0690022084000901146501F00F03D
:1017B00017F803210022481F00F012F8032100222D
:1017C000081F00F00DF808BD00100240C106C90E48
:1017D00001208840014908607047000000E100E0F6
:1017E0008207D30EFF229A408907090E99400028EC
:1017F0000BDA0007000F0838830808489B00181808
:10180000C36993430B43C3617047830804489B003B
:101810001B181868904308431860704700ED00E0FB
:1018200000E400E0F8B504460068C0035BD5394821
:101830000027C069C00008D43648C26901040A43C1
:10184000C261C069084001270090334D2868C00577
:1018500011D42868A91508432860FFF7FDFE064645
:101860002868C00507D4FFF7F7FE801B642826D838
:101870002868C005F7D52748006A032109020840F7
:1018800023D062680A4082421FD0224E306A326AF8
:101890008843012109040A433262326A8A43326270
:1018A0003062C00711D0FFF7D7FE316A05468907BD
:1018B0000BD41A4EFFF7D0FE401BB04201D90320D3
:1018C000F8BD1448006A8007F4D51248016A032263
:1018D00012029143626811430162002F03D0C26972
:1018E00001048A43C2612078C00706D00948016B11
:1018F000A26889088900114301632078800606D513
:101900000448016B10229143E268114301630020F7
:10191000F8BD000000100240007000408813000075
:1019200070470000F0B50546624889B000680F4670
:10193000C007C00FB8420AD25E4801684908490092
:10194000394301600068C007C00FB84271D12878E0
:10195000800706D558484168F0229143AA68114390
:1019600041602878C00754D06868012821D05249C6
:101970000228096822D089075BD54F4C6168890825
:10198000890001436160FFF767FE064669684B48BE
:10199000012916D06268022925D01207920F38D08B
:1019A0000446FFF759FE801BA0422DD9032009B041
:1019B000F0BD4149096889033BD5DEE7890138D587
:1019C000DBE762681207920F012A22D00446FFF774
:1019D00043FE801BA042E9D8374840680007800FCB
:1019E0000128F4D115E01207920F022A11D0044603
:1019F000FFF732FE801BA042D8D82F48406800076E
:101A0000800F0228F4D104E02B4840680007800FC3
:101A1000C7D128480168C907C90FB9420CD9016864
:101A200049084900394301600068C007C00FB84247
:101A300002D0012009B0F0BD2878400707D51E4824
:101A40004168072212029143EA68114341601C4A2F
:101A50006C460FCA0FC41B4B04AD0FCB0FC5164C01
:101A600062680C20114601401748042902D0082959
:101A70000ED040106168154A0906090F515CC84034
:101A8000134908600020FFF743FE002009B0F0BDB5
:101A90009102090F6B465D5CE16A04AB0907090F0F
:101AA000595CD20303D5FEF759FB6843E2E70948C6
:101AB0006843DFE700200240001002408813000066
:101AC000A41B0008B41B00080024F4000C4B000801
:101AD0004C00002000093D00034801680122D204A7
:101AE00011430160704700000010024010B407224B
:101AF00002600A4A53689B079B0F43605368F024B7
:101B000023408360526807231B021A40C2600448C6
:101B10000068C007C00F086010BC7047001002408A
:101B20000020024001480068704700004C0000207F
:101B30000448054900684968044A4905490F515C51
:101B4000C84070474C000020001002401C4B0008A9
:101B500010B514A00FC888B06C460FC415A30FCBE6
:101B60000FC418494A680C20134603401648042B3A
:101B700002D0082B02D0401008B010BD93021C0FF9
:101B80006B461C5DC96A04AB0907090F595CD20397
:101B900004D5FEF7E3FA604308B010BD0B4808B067
:101BA000604310BD02030405060708090A0B0C0D6B
:101BB0000E0F10100102030405060708090A0B0C9A
:101BC0000D0E0F10001002400024F40000093D002B
:101BD00010B5044CA068000603D5FFF7A1FE8020D5
:101BE000A07210BD00100240F8B504460078E24D26
:101BF000C0074BD068680007800F012807D06868CD
:101C00000007800F022809D16868C00306D528683C
:101C100080033BD5606800287ED037E001206268F1
:101C20000004012A1CD08100002A01D0052A1BD003
:101C30002A6882432A6028688843286060680028F0
:101C400016D0FFF709FD0646286880031ED4FFF76B
:101C500003FD801B642878D828688003F7D515E039
:101C6000296801432960E9E72A680A432A60F7E7FF
:101C7000FFF7F2FC06462868800307D5FFF7ECFC67
:101C8000801B642861D828688003F7D420788007F7
:101C900040D568680007800F07D068680007800F8C
:101CA000022809D16868C00306D42868800718D5BF
:101CB000E068012830D114E0E0680028286818D0D6
:101CC000012108432860FFF7C7FC06462868800703
:101CD00007D4FFF7C1FC801B022836D8286880078C
:101CE000F7D52868F82188432169C900084328608E
:101CF00010E0400840002860FFF7AEFC0646286868
:101D0000800707D5FFF7A8FC801B02281DD828688C
:101D10008007F7D4207800E02BE1000728D5E069A0
:101D2000002813D0696A012001436962FFF794FC1F
:101D30000646686A80071BD4FFF78EFC801B0228CA
:101D400003D8686A8007F7D512E08DE0686A40081A
:101D500040006862FFF780FC0646686A800707D586
:101D6000FFF77AFC801B02287ED8686A8007F7D4C8
:101D70002078400768D500200090E869C00008D4AA
:101D8000E869012109070843E861E8690840012082
:101D900000907A4F3868C00511D43868B9150843E7
:101DA0003860FFF759FC06463868C00507D4FFF7CE
:101DB00053FC801B642857D83868C005F7D5A06845
:101DC00001281ED0002801D005281ED0286A40080E
:101DD00040002862296A042081432962A068684E75
:101DE00000281BD0FFF738FC0746286A800723D459
:101DF000FFF732FCC01BB04260D8286A8007F7D5D5
:101E00001AE0296A01200143E7E7286A0421084310
:101E10002862286A012108432862DFE7FFF71CFCDB
:101E20000746286A800707D5FFF716FCC01BB0429B
:101E300044D8286A8007F7D40098002804D0E969BC
:101E4000012000078143E9612078C0061CD5606944
:101E5000012835D0401D51D0686B042108436863C8
:101E6000686B4008400000E028E06863FFF7F4FB7F
:101E70000646686B800707D5FFF7EEFB801B02283C
:101E80001CD8686B8007F7D4206A00286FD0696877
:101E90000907890F02296CD0012636060228286816
:101EA00031D0B0432860FFF7D7FB04462868800193
:101EB0005DD5FFF7D1FB001B022855D90320F8BDE3
:101EC000696B042001436963686B012108436863FF
:101ED000FFF7C2FB0646686B800707D4FFF7BCFB21
:101EE000801B0228EAD8686B8007F7D5686BF82159
:101EF0008843A169C90008436863C5E7696B04208A
:101F000081436963F2E7B0432860FFF7A5FB07460A
:101F10002868800107D5FFF79FFBC01B0228CDD89A
:101F200028688001F7D4E86AE16A000900010843E3
:101F3000E862A16A606A014368683D221204904326
:101F400001436960286830432860FFF785FB044639
:101F5000286880010BD4FFF77FFB001B0228ADD857
:101F600028688001F7D502E028688001A1D400200C
:101F7000F8BD0120F8BD00000010024000700040D4
:101F800088130000002801D101207047FFB50546E5
:101F900004466035687A81B016460F46002803D1A2
:101FA0002872204600F08CFC2420687220680168AA
:101FB000490849000160204600F092FF012823D023
:101FC000606A002802D0204600F0C4FE20688168C4
:101FD000012292031143816020688168520091437D
:101FE00039438160049871050004084321680A6838
:101FF000064B1A4002430A6020680168012211431F
:102000000160204600F00CFF05B0F0BDFFFF00FCB2
:10201000042204490428086902D0904308617047EB
:102020001043FBE700E000E00B4910B4401E88427B
:1020300002D910BC012070470849486108480722AE
:10204000C3691B021B0A4C042343C361002088613F
:102050000A6110BC70470000FFFFFF0000E000E0D5
:1020600004ED00E070477047034620331A7F012AD1
:1020700001D10220704730B401241C7702225A7724
:102080000325CA682D02AA438D6800682A43A50269
:10209000AA434D682A43E502AA430D682A43250353
:1020A000AA430D692A436503AA434D6989692A43F6
:1020B000A503AA430A43E503AA430A4342645C77A3
:1020C0000020187730BC704702462032137F012B66
:1020D00001D10220704770B4012313770224547792
:1020E000046865687026B5436560046865680E68B5
:1020F000354365600468A5688026B543A56000681F
:10210000846849680C43846053770020107770BC62
:102110007047002801D10120704770B5054604467C
:102120002035687F002803D12877204600F00AF880
:1021300002206877211D206800F040FD01206877AB
:10214000002070BD08B5104A0168104891420FD1B7
:10215000C26981150A43C261C0690022084000902B
:1021600003211320FFF73CFB1320FFF72FFB08BDD3
:10217000074A9142FBD18269012149040A438261E5
:1021800080690840009008BD002000400010024017
:10219000004401400268D36801210B43D36000680A
:1021A00002680A43026000207047704770B5044619
:1021B000006801690025C9438907002915DBC1684A
:1021C000C943890711D4E91E0161012020772068E5
:1021D00080698007204602D0FFF7E7FF04E000F0A7
:1021E000AFF8204600F0B0F9257720680169C943AF
:1021F000490717D4C168C943490713D40421C94307
:10220000016102202077206880698005800F2046C8
:1022100002D0FFF7CAFF04E000F092F8204600F079
:1022200093F9257720680169C943090716D4C16865
:10223000C943090712D40821C9430161042020774A
:102240002068C0698007204602D0FFF7AEFF04E097
:1022500000F076F8204600F077F9257720680169CC
:10226000C943C90617D4C168C943C90613D410218C
:10227000C9430161082020772068C0698005800F6C
:10228000204602D0FFF791FF04E000F059F8204605
:1022900000F05AF9257720680169C943C90708D1B8
:1022A000C168C943C90704D1891E0161204600F0F5
:1022B000BBF920680169C943090609D4C168C9434B
:1022C000090605D48021C94301612046FFF7CAFEF3
:1022D00020680169C943490609D4C168C943490650
:1022E00005D44021C9430161204600F0A7F92068C8
:1022F0000169C943890609D4C168C943890605D45F
:102300002021C94301612046FFF7ADFE70BD0000EA
:1023100000B50068084985B088420BD1801500904F
:102320000221002001910290049103906946034824
:10233000FFF7DAF805B000BD004401400004004892
:1023400070470000F8B5064604462036307F0D463B
:1023500001280CD00120307702207077002A08D0A5
:10236000042A19D0082A2CD00C2A71D171E002203D
:10237000F8BD206800F068FC2068816908221143DC
:1023800081612068816904229143816120688169AB
:102390002A69114381619BE0206800F09BFC206862
:1023A00081690122D2021143816120688169521042
:1023B00091438161206881692A6912021143816118
:1023C00086E02068016AFF22013291430162076AB8
:1023D0004268C1697023994389082B6889000B43BF
:1023E000012149028F43A968090239433B4FB84292
:1023F00008D1C714B943EF683F020F4301158F435B
:10240000394608E0364FB84205D0364FB84202D0C0
:10241000354FB84208D103273F03BA436F693F01E4
:102420001743AA6912013A434260C3616A68C263F2
:1024300001622068C16908221143C1612068C16935
:1024400004229143C1612068C1692A691143C161B5
:102450003EE02068026A012109038A430262026A9F
:102460004168C76973231B029F432B681B023B43D0
:1024700001277F03BA43AF683F031743174A9042CF
:1024800008D0174A904205D0164A904202D0164A08
:10249000904206D10A46012189038A43696989016C
:1024A00011434160C3616968016407622068C169C2
:1024B0000122D2021143C1612068C269012189024F
:1024C0008A43C2612068C1692A6912021143C1614D
:1024D0000120707700203077F8BD0000002C01400B
:1024E000004001400044014000480140002801D163
:1024F0000120704770B5054604462035687F0028E6
:1025000003D12877204600F00BF802206877211DC0
:10251000206800F053FB01206877002070BD0000A8
:102520000068074981B0884208D1064882690121C4
:1025300009040A43826180690840009001B0704735
:1025400000400140001002407047000010B4012418
:10255000224603688A40196A91431962196A114335
:1025600019620C4A0168914208D00B4A914205D089
:102570000A4A914202D00A4A914204D14A6C01238C
:10258000DB031A434A64006801682143016010BC00
:1025900000207047002C01400040014000440140F1
:1025A0000048014070B403680124002522461E6AD9
:1025B0008A4096431E621A6A8D402A431A62164B5D
:1025C000144D01689A10A94208D0144DA94205D0B3
:1025D000134DA94202D0134DA9420AD10D6A1D42E2
:1025E00007D10D6A154204D14D6C0126F603B5439F
:1025F0004D6401680D6A1D4206D10B6A134203D176
:102600000A68520852000A602030447770BC0020EB
:1026100070470000002C01401111000000400140F3
:10262000004401400048014010B50068024988425A
:1026300001D1FFF755F810BD0010004070477047FA
:10264000F8B5044600680168FF2221329143016019
:1026500020688168490849008160216888682246AD
:1026600046062046002340300F256032002E1ADA3D
:102670008E684027BE438E60616E00290AD00E48E6
:102680004863606EFEF75EFD002813D0606E416BFC
:1026900088470FE04383206805622020907220461F
:1026A000FFF7CDFF06E043830D62202090722046A5
:1026B000FFF7C5FF0020F8BD472E00087047000057
:1026C000F8B502680446D16910680B0725461B0F50
:1026D0006035002B66D09368FF27DE07F60F2137A1
:1026E0000740374367D0CF0706D0C70504D5012779
:1026F0001762E26E3A43E2668A0708D5DA0706D027
:10270000276802223A62E26E04273A43E2664A07E9
:1027100008D5DA0706D0236804221A62E26E022383
:102720001A43E2660A0709D520220240324305D047
:10273000236808221A62E36E1343E366E26E002AFE
:102740002FD0890604D5800602D5204600F089FBEB
:10275000E06E000703D42068806840064DD52068ED
:102760000168FF2221329143016020688168490895
:10277000490081602020A87220688168490638D508
:10278000826840218A438260606E002831D02E49E1
:102790004163606EFEF7D6FC002802D0606E416B8C
:1027A0008847F8BD8B0605D5830603D5204600F083
:1027B00058FBF8BD93680B0638D5030636D5687A02
:1027C0002128F6D120464030418A00291BD0012320
:1027D000A1681B03994202D1216900291DD0E16C37
:1027E0004A1CE264226809781185418A491E4182A7
:1027F000F8BD2046FFF762FFF8BD2046FFF75EFFF9
:102800000020E066F8BD10688021884310602068D1
:102810000168402211430160F8BDE16C0988C905D7
:10282000C90D1185E16C891CE164DEE74906F3D529
:102830004006F1D51368204640218B4313602021C8
:10284000697200F00BF9F8BD332E0008002801D1A1
:102850000120704770B5054604466035687A002649
:10286000002803D12E72204600F02AF82420687236
:1028700020680168490849000160204600F030FBEB
:1028800001281BD0606A002802D0204600F062FABE
:10289000206841680122D20291434160206881682A
:1028A0000822914381602068016801221143016080
:1028B0003046E66620216972A9722E7270BD000052
:1028C000F0B50368254F0920002425490225032679
:1028D0000122C00687B0BB4220D18F6993031F43FA
:1028E0008F61896903961940059111030091019543
:1028F000029404926946FEF7F7FDC020009002940E
:1029000069460396019504941648FEF7EDFD0022F2
:1029100003211B20FEF764FF1B201AE0124FBB426D
:1029200019D1CF6901235B041F43CF61C9690396A5
:1029300019400591032189030091019502940492A5
:102940006946FEF7D1FD002203211C20FEF748FF57
:102950001C20FEF73BFF07B0F0BD0000003801402F
:1029600000100240000400480044004070B40346D8
:1029700060339C7A202C3BD100290BD0002A09D04F
:10298000012584682D03AC4207D10669002E04D1CD
:10299000CE0702D070BC012070471E7A012E27D0CE
:1029A00001261E724165014640310A834A83FF2297
:1029B000AC4204D10469002C07D10F4A05E0002C79
:1029C00004D10469002C00D07F228A830021C166D3
:1029D00022229A72197201688A6832438A600068FA
:1029E0000168FF2221321143016070BC0020704752
:1029F00070BC022070470000FF010000704730B437
:102A0000034660335C7A202C25D100290BD0002AA4
:102A100009D0012584682D03AC4207D10469002C3C
:102A200004D1CC0702D030BC012070471C7A012CA5
:102A300011D0C164014640310A824A820021C16638
:102A400021225A72197200680168802211430160C4
:102A500030BC0020704730BC022070477047FEE752
:102A600010B5FFF7B5F810BD7047000082B001F057
:102A7000BEFA09250E4CED067D26F6000090208A50
:102A8000002804D0012208212846FEF7DEFD608AD6
:102A9000002804D0012202212846FEF7D6FD054871
:102AA000FEF716FE3146684601F094FAE7E70000AB
:102AB000D40300202402002010B501F0A3FA10BDB9
:102AC00030B595B001241920059400900194102090
:102AD000069000030990000102250A9008950794CA
:102AE0000B946846FFF780F8002800D0FEE70D95AC
:102AF000072000250C900E9501210CA80F95FEF7DC
:102B000011FF002800D0FEE710A812951094FEF7E0
:102B100089FE002800D0FEE7FEF7DEFFFFF702F88F
:102B20007D21C900FDF71AFBFFF77EFA0420FFF7AD
:102B30006FFA03210022081FFEF752FE15B030BDC8
:102B4000134801680122114301604168114A114094
:102B500041600168104A114001600168012292043D
:102B60009143016041683F22120491434160C16A70
:102B700009090901C162016BFF221432914301630B
:102B8000416B4908490041630021816070470000A2
:102B9000001002400CB8FF08FFFFF6FE10B5024817
:102BA000FFF704FB10BD00003402002010B50248FE
:102BB000FFF7FCFA10BD0000640B0020F0B40268BF
:102BC0001B4B1C4C984201D0A04203D17025AA4354
:102BD0004D682A43184D194E194F98420AD0A04209
:102BE00008D0184CA04205D0A84203D0B04201D072
:102BF000B84205D11446032212029443CA68224304
:102C00008024A2434C69224302608A68C2620A6837
:102C10008262984205D0A84203D0B04201D0B842A7
:102C200001D10969016301214161F0BC70470000D5
:102C3000002C0140000400400040014000440140DD
:102C40000048014000200040F0B4026A52085200DF
:102C50000262056A436882697024A24392080C6884
:102C600092001443022295438A68174E2A43154D59
:102C7000A84207D0B04205D0144FB84202D0144F3A
:102C8000B84206D10827BA43CF68174304229743B6
:102C90003A46A84207D0B04205D00C4DA84202D017
:102CA0000B4DA84206D103252D02AB434D691D43B0
:102CB0008B692B4343608461496841630262F0BCC5
:102CC00070470000002C01400040014000440140DA
:102CD0000048014070B4026A10239A430262056AF8
:102CE0004268836973242402A3430C6824021C43B2
:102CF00020239D438B681B012B43124DA84208D112
:102D00001D46CB688026B5431B012B434025AB43B2
:102D100008E00D4DA84205D00C4DA84202D00C4D44
:102D2000A84208D10325AD02AA434D69AD00154361
:102D30008A6992002A434260846149688163036220
:102D400070BC7047002C014000400140004401402D
:102D50000048014010B4818CC90707D001684A6857
:102D600001235B049A43836A1A434A60818C890772
:102D700007D501684A6801231B049A43C36A1A43B2
:102D80004A60818C490707D501684A6801239B0482
:102D90009A43036B1A434A60818C090707D501687F
:102DA0004A680123DB039A43436B1A434A60818CD0
:102DB000C90607D50268916801231B039943836BF9
:102DC00019439160818C890607D501688A680123BF
:102DD0005B039A43C36B1A438A60818C490612D500
:102DE00003685A6801210905046C8A4322435A602A
:102DF000026C8A4207D10268516803235B0599433C
:102E0000436C19435160818C090607D501684A68F3
:102E10000123DB04806C9A4302434A6010BC704774
:102E20000021C1662022603042728272017208461F
:102E3000704710B5406A0022014640314A834A82F9
:102E4000FFF73CFC10BD10B5406A00225A210A521F
:102E500002680F21116220226A210A54FFF7EFFB5A
:102E600010BD70B50246403203466033948B9D7AA4
:102E70000168222D05D0886908221043886102204C
:102E800070BD898C012685683603B54202D105697B
:102E9000002D0CD02140446D651C45652170518B7F
:102EA000491E0904090C518308D0002070BD456DEE
:102EB00021402980416D891C4165F0E701680A685D
:102EC000FF242134A2430A6001688A685208520034
:102ED0008A6020219972FFF791FD002070BD0000EB
:102EE000F8B504462369A268E5691A4363691020AE
:102EF00000212B431A4323680E461D684D4F3D4069
:102F000015431D6023685A6803252D03AA43E5680D
:102F10002A435A60236AA26925681A43AB680B27C3
:102F20003F02BB431343AB60434A2568954210D12F
:102F3000424A126B9207920F0ED0012A05D0022A44
:102F400005D0032A09D1022007E0042005E008206B
:102F500003E03B4A954200D100200122E369D203FD
:102F6000934235D100280ED0022816D004281CD058
:102F7000082824D001260A0908071201400F2168F9
:102F80001043C8602DE0FEF7D3FD616840004A0899
:102F90008018FDF7E3F881B2EDE76168294A480837
:102FA0008018FDF7DBF881B2E5E7FEF7D1FD616837
:102FB00040004A088018FDF7D1F881B2DBE761686C
:102FC0000122480812048018FDF7C8F881B2D2E740
:102FD000002808D0022811D0042818D0082821D0B1
:102FE00001263046F8BDFEF7A3FD61684A08801847
:102FF000FDF7B4F8216880B2C860F2E76168124A50
:1030000048088018FDF7AAF880B2E860E9E7FEF703
:103010009FFD61684A088018FDF7A0F8216880B21A
:10302000C860DEE7616848088018FDF797F880B24D
:10303000E860D6E7F369FFFF003801400010024066
:10304000004400400024F40000127A0010B5084843
:10305000FFF736FB06480068C169C90606D5016A54
:1030600010221143016203490120087010BD0000C5
:10307000F40200200A00002010B50848FFF720FBEA
:1030800006480068C169C90606D5016A10221143C5
:10309000016203490120087010BD00006403002094
:1030A0000B000020FEE700000FB410B504A9074B89
:1030B00002AA039800F038F8044602A9002000F0A4
:1030C000DBF9204610BC08BC04B01847793400086E
:1030D0002021020C01D010211046020A01D0104616
:1030E0000839020901D01046091F820801D0104694
:1030F000891E420801D0881E7047081A704702E0F6
:1031000008C8121F08C1002AFAD170477047002072
:1031100001E001C1121F002AFBD17047014908607C
:103120007047000094000020FFB58FB005460026D0
:1031300006E025280AD0129A119990476D1C761C3A
:1031400028780028F5D1304613B0F0BD0024029451
:103150000121B54A009400E004436D1C2B78084619
:10316000203B98401042F7D128782A280ED002221E
:10317000287801463039092916D802990A2359437B
:103180003039401814436D1C0290F1E7109802C8C2
:1031900002911090002904DA0120400304434842C0
:1031A0000290022004436D1C28782E2817D1042099
:1031B000044368786D1C2A280CD110986D1C02C835
:1031C000009110900BE000990A22514330394018C9
:1031D0006D1C00902878014630390929F3D92878E8
:1031E0006C2810D006DC4C281AD068280ED06A282B
:1031F00017D104E0742813D07A2812D110E00120EE
:10320000400504430CE00121090501E00321090503
:103210000C436978814203D10120000524186D1CFC
:103220006D1C2878692874D006DC00288BD06328B0
:1032300027D0642806D16CE06E2808D073282CD0E3
:10324000752878D0129A11999047761C5FE0600239
:10325000400F022809D003280DD0042810980168D7
:103260000DD00E60001D109051E01098F21701680B
:103270000E604A60F6E7109801680E80F2E70E7063
:10328000F0E710986A4601781173001D1090002035
:10329000507303A80190012005E0109802C8019125
:1032A00010900020C04361070CD5002700E07F1C70
:1032B00000998F420FDA8742F9DB0199C95D002935
:1032C000F5D108E0002700E07F1C8742FCDB019974
:1032D000C95D0029F8D102982146C01B0290129BBB
:1032E000119A00F0B3F88019C61907E00198019906
:1032F0000078491C0191129A119990477F1EF5D2CE
:103300002146129B119A029800F090F886196D1CC4
:1033100016E70A200190109901C910916102490F26
:10332000032900D100B2042900D140B2002803DAF9
:1033300040422D2103E00DE0210504D52B216A46F2
:103340001173012103E0E10711D02021F7E70CAF51
:103350000C9114E00A200190109901C910916102AA
:10336000490F032900D180B2042900D1C0B2002145
:10337000EDE70199FCF7F2FE30317F1E397000282D
:10338000F7D104A8C01B20300190600704D50120AC
:1033900000048443009801E00120009001998842D4
:1033A00001DD401A00E00020411800900C98091837
:1033B0000298401A0290E00306D42146129B119A0B
:1033C000029800F043F8861900200D9008E003A948
:1033D000085C129A119990470D98401C761C0D902C
:1033E0000C998842F3DBE0030CD52146129B119A1D
:1033F000029800F02BF8861904E0129A30201199F7
:103400009047761C0099481E00900029F5DC05E0E5
:103410003878129A7F1C11999047761C0199481EA2
:1034200001900029F4DC6BE709280100F8B5044697
:1034300000251E461746880404D405E0394620209E
:10344000B0476D1C641EF9D52846F8BDFFB504468B
:10345000002581B01E46C80301D5302700E0202793
:10346000880404D505E038460399B0476D1C641EF6
:10347000F9D5284605B0F0BD0A68531C0B601070E2
:10348000704700008CB000F0B2FD099020227C490A
:103490007C48FFF76BFA7B4A11680B6A10200343E4
:1034A0000B6211680A6802430A607748FF25774E6D
:1034B0002D020590F07800287DD00598408B2021C2
:1034C000081AC4B26F48FFF7BBF8062C02D0202CB4
:1034D0004CD0B9E006226EA16948FCF778FE0028BE
:1034E00043D16D4948628862C86208634863886353
:1034F000C86308644864886400F0A0F9019000F093
:10350000F5F80090022000F0C5F90746012000F010
:10351000C1F90446706BFCF7FBFF00225F4BFCF720
:1035200017FF00225E4BFCF713FF5E4A5E4BFCF771
:1035300077FFFDF725F8009A019980B289B292B21F
:1035400003920491009059A30297019459A25AA1A1
:103550006248FFF7A9FD002210216148FEF775F8C7
:1035600028225E494748FFF74AFA6DE000222021F1
:103570005B48FEF76AF8424C2078522802D0572860
:1035800062D125E0E07F52285ED1434900204862A5
:103590008862C862086348638863C86308644F48E8
:1035A0005221017014224F49401CFCF7FEFD0022FD
:1035B00010214B4800E04EE0FEF747F800214A4852
:1035C000FEF7C4FF202245492E48FFF718FA3BE0DA
:1035D000E07F572838D13048002747628762C762AA
:1035E000076347638763C76307643C4957200870D4
:1035F000FDF768FF012008900AA90697079506A81D
:10360000FDF7A2FE1422611C3648FCF7CEFD354FB3
:103610000024A0003A58411900230220FDF706FFBC
:10362000641CE4B2052CF4D3FDF7F6FE0022102151
:103630002B48FEF70AF800212B48FEF787FF2022CF
:1036400026491048FFF7DBF90020F07020220C49D2
:103650000C48FFF78BF9642109A800F0BBFC00219E
:103660002148FEF79FFF1E4C012210212046FDF746
:10367000ECFF012220212046FDF7E7FF1AE70000BA
:103680001C04002064030020A40300200800002084
:10369000424541434F4E00001804002000C8A94095
:1036A00000A06B4033333353F8A13C41312E322E0E
:1036B00036000000412E3000422025732025732063
:1036C00025303364202530346420253034642025AF
:1036D0003034642025303264200000003C04002097
:1036E00000040048D4030020B4020020F8B5504C78
:1036F0000020504D2080012189022846FDF7A0FFBF
:103700002178002874D0BF20014021700421284670
:10371000FDF796FF217800286DD0DF200140217051
:1037200002212846FDF78CFF2178002866D0EF2083
:1037300001402170012149032846FDF781FF02263F
:10374000002860785DD0FD210840607001210903E8
:103750002846FDF775FF0028607854D040084000E7
:1037600060700121C9022846FDF76AFF0028207811
:103770004CD04006400E20700121C9032846FDF7B9
:103780005FFFF7270028607843D038406070012140
:1037900089032848FDF754FFFB25002860783BD0BB
:1037A0002840607009204021C006FDF749FF00282D
:1037B000207834D0FD210840207009208021C006E7
:1037C000FDF73EFF002820782BD0284020700121F3
:1037D0001848FDF735FF0028207825D038402070A4
:1037E000154841886846018088B2F8BD00E002E0D3
:1037F0004020014389E72020014390E71020014346
:1038000097E73043A1E701210843A9E78021084356
:10381000B1E708210843B9E704210843C1E7304371
:10382000CAE704210843D1E708210843D7E700008D
:1038300002000020000400480000002038B5124CAF
:103840000020124D208080212846FDF7F9FE002837
:1038500013D0207841084900217040212846FDF707
:10386000EFFE002820780CD0FD2108402070084889
:1038700081886846018088B238BD217801200143E3
:10388000EAE702210843F1E70400002000140048A1
:1038900000000020F8B50022374C384D3849012887
:1038A00002D0022833D064E0C86B0090002861D0B9
:1038B0000220205EFCF72CFE064600200F46205E0C
:1038C000FCF726FE00222B46FCF7AAFD04460D4617
:1038D0000098FCF71DFE00222A4BFCF739FD002260
:1038E000294BFCF79DFD0022284BFCF731FD0022FF
:1038F000274BFCF71FFD22462B46FCF729FD3246DD
:103900003B46FCF773FCFCF717FE02B231E0086C93
:10391000009000282ED00A20205EFCF7F9FD064614
:1039200008200F46205EFCF7F3FD00222B46FCF733
:1039300077FD04460D460098FCF7EAFD0022114B86
:10394000FCF706FD0022104BFCF76AFD00220F4B2E
:10395000FCF7FEFC00220E4BFCF7ECFC22462B464B
:10396000FCF7F6FC32463B46FCF740FCFCF7E4FD76
:1039700002B21046F8BD0000D403002000408F4082
:103980000800002000C8A94000FEAF400000E43F4E
:1039900000406F4070B5164E0121C9033046FDF757
:1039A0004FFE00281CD00025012189033046FDF779
:1039B00047FE002816D0002401212C43490330463D
:1039C000FDF73EFE00280FD00025012125434902C6
:1039D0000848FDF735FE002808D00020284370BDB8
:1039E0000125E1E70224E7E70425EEE70820F5E7F3
:1039F0000008004800040048F8B5012209265402D6
:103A0000F60621463046FDF720FE0120FDF78EFC2C
:103A1000002221463046FDF718FE002417480121F8
:103A20000480224689023046FDF70FFE0125ED0392
:103A30002F11002239463046FDF707FE2C4206D0F2
:103A4000FF21002201313046FDF7FFFD04E0012295
:103A500011023046FDF7F9FD012239463046FDF7E7
:103A6000F4FD6D08E5D1012291023046FDF7EDFD30
:103A7000024801886846018088B2F8BD0000002035
:103A8000F8B5092605460121F606002289023046CE
:103A9000FDF7DBFD0124E4032711002239463046FF
:103AA000FDF7D3FD254206D0FF210022013130462B
:103AB000FDF7CBFD04E0012211023046FDF7C5FD04
:103AC000012239463046FDF7C0FD6408E5D10122E8
:103AD00091023046FDF7B9FDF8BD0000ACB0FDF72E
:103AE00007FEFF2114220902FE48FCF75EFBFD4899
:103AF0000022825E7D26FC49F600002A01DD8A4212
:103B000000DB06800222825E0024B24200DB448099
:103B10000822825E002A01DD8A4200DB06800A213B
:103B2000415EB14200DB4481FEF7CAFFEF484069C5
:103B30000121C9040843ED49486148690121C904CC
:103B400008400590E9484069C9000843E7494861D1
:103B500048690121890508400590E4484169012030
:103B60004004E24A014351615169014005915169A4
:103B70004000014351615169DD4F01400591092029
:103B800000223946C006FDF760FD01223021D948E8
:103B9000FDF75BFD07204003012500906946029573
:103BA0000194D548FDF7A0FC092002946946C0069F
:103BB000009701950394FDF797FCC0200090092021
:103BC000019469460294C006FDF78EFCCB48009034
:103BD000019469460294C748FDF786FC03200190D2
:103BE0006F030920694600970294C006FDF77CFC2C
:103BF000C0200090019469460294C148FDF774FC0E
:103C0000082000900320019069460294B948FDF70E
:103C10006BFC302000900294694601950394B548EE
:103C2000FDF762FC68020090694602950194B14874
:103C3000FDF75AFCAD484069AC49284348614869E2
:103C400000222840009003210920FDF7C9FD09202A
:103C5000FDF7BCFDAC48AB49016084604B21C760F7
:103C6000C901046141608461C46104620C210023C4
:103C7000446241611A461946FEF784F9002800D0D3
:103C8000FEE7A34802274460846007619F49C4603F
:103C900001608461C4610462082144624161490198
:103CA0008162056389004463C162FDF7F5F800286D
:103CB00000D0FEE70120000301900620029000944E
:103CC00069469348FCF7A2FF002800D0FEE769464A
:103CD0008F480097FCF79AFF002800D0FEE70420E9
:103CE000009069468A48FCF791FF002800D0FEE763
:103CF0000520009069468648FCF788FF002800D020
:103D0000FEE71120009069468148FCF77FFF0028FC
:103D100000D0FEE780487F49016084606427046129
:103D2000C76078214461416080218161FEF7F1F92B
:103D3000002800D0FEE77848FEF7D8FB002800D026
:103D4000FEE76020009032200694019002940394D4
:103D500004940594002269466F48FEF7F3FA0028A0
:103D600000D0FEE701200794400308940C900994CA
:103D70000A940B9407A90D946748FEF775F900287B
:103D800000D0FEE76448FEF7C3FA65486349016066
:103D90008460C760FF21E131046141608027876151
:103DA000FEF7B7F9002800D0FEE75F485D490160E3
:103DB000846004618761C6600F2144614160FEF741
:103DC00095FB002800D0FEE720202A902AA92B94FA
:103DD0005548FEF779F9002800D0FEE760200594E9
:103DE000019500900294039404940022694606947D
:103DF0004D48FEF7A7FA002800D0FEE701200794FF
:103E0000400308940C9009940A940B9407A90D940C
:103E10004548FEF729F9002800D0FEE74448434909
:103E2000016006214160FF212D31C1608160FDF7F5
:103E300019FC002800D0FEE73F483E49016084603D
:103E4000E121C4604902046141608461C46104628B
:103E50000C2144624161FEF7F9FC002800D0FEE726
:103E60002B48FCF777FE00212F48FEF76FFB052259
:103E700032492748FDF714F900212748FEF766FB71
:103E8000C820FDF753FA00212348FEF78BFB284892
:103E9000FDF71EFC2A4D284630300FC811931092B2
:103EA0000F910E90AA6C696C286C13911290149269
:103EB00000210EA800F0AEF8224C206228464C30BB
:103EC0000FC818931792169115906A6E296EE86DB7
:103ED0001A9119901B92002115A800F09BF8294611
:103EE000606231E0D403002088130000001002401B
:103EF0000A0F0000000400480008004807FC00000A
:103F00000014004800380140F40200200024014061
:103F1000D801002000440140B402002000200040ED
:103F200034020020004001407402002000300040B4
:103F3000240200200044004064030020E803002025
:103F40006C4A000808000020084668306CC81F96BC
:103F50001E951D931C928A6FC96F806821912290D3
:103F6000209200211CA800F055F8A0620A48011D0B
:103F70002EC9269525932492239182694169C069AF
:103F8000279129902892002123A800F043F8E062AD
:103F900000F028F8FEE70000EC4A000870B405467F
:103FA0000A48002300290FD9094CEA5C5040082236
:103FB000C60702D04008604000E04008521EF7D11A
:103FC0005B1C9BB28B42F0D370BC7047FFFF0000BC
:103FD00001A0000010B5002900D1012100F0BCFAB9
:103FE000002010BD10B500F0E7FA002010BD10B59C
:103FF000EFF30580002802D000F030FC10BD00F087
:1040000027FC10BD10B500F013FC012801D000F012
:1040100057FB10BD10B50824045F002284B0842C27
:1040200000D0E21C84694369019302940092046801
:1040300002690B464068214600F054FB04B010BDF5
:10404000F8B5134C0F46E66805462068001D00F0E1
:104050000BFA681C07D1002F05D021680D48091DF7
:1040600000F047FAF8BD2068751945602168B5422F
:1040700004D2A06B091D00F023FAF8BD606B091D86
:1040800000F01EFAA06A8542F7D2A562F8BD0000D2
:1040900058000020680C0020124D134C6068002866
:1040A00019D0206B401C20632868002816D000F02F
:1040B00033FC00F02BFAE868C068001D00F0D4F96A
:1040C000A068401EA0606068401E606000F02AFA90
:1040D00060680028E5D100F033FADFE700F01CFC4F
:1040E000F6E70000540C0020580000200348006848
:1040F000401C72B600D0FEE7FEE70000540000202E
:1041000010B40124031F24061C601B1F1960191F13
:10411000034B0B6014390A6010BC40387047000034
:10412000ED40000886B0FFF762FF05902022B049FD
:10413000B048FEF71BFCAF490868036A102213431E
:1041400003620868016811430160AB4EAB4CAC4F91
:10415000A078002872D0002220213846FDF775FA99
:10416000708B2021081A85B2A248FEF769FAFFF782
:1041700011FC0490082D4ED12A46A2499C48FCF718
:1041800026F8002802D10498012807D02A469E4923
:104190009748FCF71CF800283ED040E094486A4657
:1041A0000178117040785070022090700020974B79
:1041B000D07018785B7882078106D20FC90F520041
:1041C00011434206D20F92001143C206D20FD20011
:1041D0001143DA07D20E11434207D20F52011143A5
:1041E0009A07D20F92011143C009C00101436A46E8
:1041F000117105216846FFF7D1FE6A465071000A29
:104200009071072269467B48FEF7F9FB00221021D6
:104210003846FDF71AFAD4E00498012807D02A4658
:104220007B497348FBF7D3FF002808D00AE0012040
:10423000FFF730FB002879DA002077E0C8E0049827
:10424000012807D02A4673496948FBF7C0FF0028B8
:1042500006D008E00220FFF71DFB0028ECDB65E03C
:104260000498022807D02A466B496148FBF7AFFF44
:1042700000283CD03EE05E486A46017811704078E4
:104280005070022090700020604BD07018785B78DE
:1042900082078106D20FC90F520011434206D20F86
:1042A00092001143C206D20F1143DA07D20E114316
:1042B0004207D20F520111439A07D20F92011143C4
:1042C000C00901436A46117105216846FFF766FE81
:1042D0006A465071000A9071072269464548FEF708
:1042E0008EFB002210213846FDF7AFF969E00498F3
:1042F000022807D02A4649493D48FBF768FF0028B5
:1043000006D008E00120FFF7C5FA002894DB0DE095
:104310000498022805D00498012824D002282BD024
:104320004FE00220FFF7B6FA002885DB304B6946E4
:104330001A780A705A784A7002228A700212CA7079
:10434000087105216846FFF729FE69464871000A91
:10435000887107222748FEF752FB002210213846B9
:10436000FDF773F92DE02248007801280CD00B28C6
:104370000AD00C2808D024E01D480078022803D079
:104380000D2801D00E281CD1194968460A78027000
:1043900049788020014368464170012181700321E2
:1043A000FFF7FCFD01466846C170090A017105224C
:1043B00069461048FEF723FB002210213846FDF71E
:1043C00044F90020A070202209490A48FEF7CEFADD
:1043D000142105A8FFF7FEFD012220213846FDF734
:1043E00034F9012210213846FDF72FF9B0E600001C
:1043F000FC030020F4020020340300200800002009
:10440000000400486C4A0008744A00080C000020B0
:104410007C4A0008844A00088C4A0008944A000834
:10442000F8B506460C46FCF74BF9051E0F4600D0C2
:104430000120014349000B484908411AC90F0DD01A
:10444000002E01D0012100E000210C436100490849
:10445000401AC00F02D10120FEF760FE28463946FF
:10446000F8BD00000000F07F4368826801699A602F
:10447000836842685A604A68824201D182684A6011
:10448000002202610868401E08607047034B036009
:10449000034808604020106070470000100A0020A8
:1044A000640A00200146083100224160D243C16005
:1044B0008260016100210160704700210161704745
:1044C00030B40B685A1C02D00246083202E002697E
:1044D00004E02246546825689D42FAD953684B602F
:1044E00099608A60516008610168491C016030BCB4
:1044F000704742684A6093688B6093685960916026
:1045000008610168491C01607047000072B60448E8
:104510000168491C0160BFF34F8FBFF36F8F704775
:104520005400002005490868002804D0401E086097
:1045300000D162B6704772B6FEE70000540000205A
:104540000120044900074860BFF34F8FBFF36F8F0E
:104550007047000000ED00E010B5002807D00029EA
:1045600007D0144A136B002B05D072B6FEE772B663
:10457000FEE772B6FEE7136B5B1C1363D268036839
:104580005918934204D98B420CD9914204D809E0BE
:104590008B4201D8914205D90160881A0021FFF7AA
:1045A0004FFD00E0016000F0B7F9002801D1FFF7EE
:1045B000C7FF10BD5800002010B586B0002403943A
:1045C00005AA04A903A80494FFF760FF04990398BF
:1045D000009401910290002309A10B48059A00F074
:1045E00081F80A490028C86208D072B60020C0438A
:1045F000886201204861CC6000F03CF806B010BD34
:1046000049444C4500000000994000085800002033
:10461000164B186B002802D00120D861704700208B
:10462000D8611869142102464A4311498A58002A60
:104630000AD1002806D01422401E42438A58002A7C
:10464000F7D001E072B6FEE7142210B442435118CD
:104650004A680C46526808344A60A24201D1526846
:104660004A60D1681960186110BC7047580000207A
:10467000C80B002010B50E48016AFF221204114336
:104680000162016A1202114301620A487D21C900D8
:104690000068FBF763FD0849401E48610720086178
:1046A000064900200860FBF70FFD002010BD000048
:1046B00000ED00E04C00002000E000E0540000208D
:1046C00010B5FBF715FD044600F0CEF8002803D026
:1046D00001200349000748602046FBF70DFD10BD8F
:1046E00000ED00E0F0B585B006460B980C9D0A9CE5
:1046F00000280FD0002D0FD028639200121F8018C1
:104700000093C70802ABFF0001960393780705D01A
:1047100072B6FEE772B6FEE772B6FEE72A180B5CC9
:10472000203213750A5C002A02D0401C1028F5D3F1
:104730002E4600204036F070042C00D30324EC6297
:1047400000206C64A864281DFFF7B7FE28461830C7
:10475000FFF7B3FE04202D61011B6D62A9610020EB
:10476000E86430743846009A0199FFF7C9FC286064
:104770000398002800D00295FFF7C8FE254EB068C8
:10478000401CB0603068244F002803D070690028B6
:1047900021D026E03560B068012822D10024142001
:1047A0006043C019FFF77EFE641C042CF7D31B483E
:1047B000FFF778FE1A48FFF775FE1A48FFF772FEFA
:1047C0001948FFF76FFE1948FFF76CFE1348706336
:1047D0001430B06305E03068E96AC06A884200D8E6
:1047E0003560706A401C7062E86A316988420ED890
:1047F00014214843C019291DFFF77BFEFFF792FEE5
:104800007069002800D03068029805B0F0BD3061B2
:10481000EEE7000058000020C80B0020180C002014
:104820002C0C0020400C0020540C0020680C0020B0
:1048300006484169002904D0006B002803D00020FD
:104840007047012070470220704700005800002088
:104850000148C06870470000580000200148C06847
:104860007047000058000020F8B50020274D009048
:10487000286B002804D0A869401CA8610098F8BDE6
:10488000EE68761CEE60224F15D1686B0068002838
:1048900001D072B6FEE7686BA96B6963A863286AEA
:1048A000401C2862686B0068002813D0686BC068E1
:1048B000C0684068A862A86A8642DFD3686B006857
:1048C000002809D0686BC068C4686068864205D259
:1048D000A862D3E7AF62EEE7AF62CFE7201DFFF734
:1048E000C3FDA06A002803D020461830FFF7BCFDA6
:1048F000E06A2969884207D81421484305494018CD
:10490000211DFFF7F6FDD9E72861F5E758000020E3
:10491000FFFFFFFFC80B0020F8B50020504D0090AE
:10492000286B002808D0FFF7F1FD286B401E286394
:10493000286B002802D040E072B6FEE7A868002885
:104940003BD0484E3068002829D0474FF068C468F3
:1049500020461830FFF788FD201DFFF785FDE06A2F
:104960002969884277D814214843C019211DFFF7CF
:10497000C0FDE06A2968C96A884201D30120E86164
:1049800030680028E2D1002C09D0696B28460968FC
:10499000002916D0416BC968C96849688162AF694E
:1049A000002F09D0286B00280ED0A869401CA861F0
:1049B0007F1EF7D10020A861E869FFF7B3FD0098DA
:1049C000F8BD0021C943E9E7EE68761CEE6015D119
:1049D000686B0068002801D072B6FEE7686BA96BAF
:1049E0006963A863286A401C2862686B0068002815
:1049F00013D0686BC068C0684068A862A86A864225
:104A0000D6D3686B006800280AD0686BC068C46899
:104A10006068864208D2A862CAE70020C043ECE77B
:104A20000020C043A862C3E7201DFFF71DFDA06A58
:104A3000002803D020461830FFF716FDE06A2969E8
:104A400088420AD81421484307494018211DFFF71E
:104A500050FDD6E7FFE7286185E72861F2E700000F
:104A600058000020400C0020C80B0020010300006B
:104A70000001840A0B0300040001C5610C0300045B
:104A80000001C4D602030000000184390D030004B4
:104A90000001C5070E0300040001C534344B0008B3
:104AA0006D2A0008FEFF000000000000400000002A
:104AB000C0040020C0050020244B00082541000848
:104AC000000000000000000040000000140600206C
:104AD00014070020504B0008F9080008FFFF0000F1
:104AE0000000000040000000680700206808002067
:104AF000404B000885340008FEFF00000000000065
:104B000040000000BC080020BC090020000000009C
:104B1000000000000102030406070809000000006D
:104B200001020304726567756C617253616D706C8C
:104B30006500000064656661756C745461736B0098
:104B4000636F6E666967506172616D65746572004E
:104B50004C6564446973706C617900007C4B00089B
:104B60000000002098000000FE300008144C0008EF
:104B700098000020E80F00000E310008000000003F
:104B80000000000000000000000000000000000025
:104B90000000000000000000000000000000000015
:104BA0000000000000000000000000000000000005
:104BB00000000000000000000000000000000000F5
:104BC000000000000000000000127A000000000059
:104BD000AAAAAAAA0000000000000000000000002D
:104BE00000000000000000000000000000000000C5
:104BF00000000000000000000000000000000000B5
:104C000000000000000000000000000000000000A4
:044C100000000000A0
:04000005080000B53A
:00000001FF
