:020000040800F2
:10000000B80E0020410100081D2A0008172700082B
:1000100000000000000000000000000000000000E0
:10002000000000000000000000000000692A000835
:100030000000000000000000FF000008B92A0008CE
:10004000530100080000000053010008530100089C
:100050005301000853010008530100085301000830
:1000600000000000BD080008CD080008530100088A
:10007000530100085301000853010008000000006C
:1000800053010008AD2B0008000000009D2B000864
:1000900053010008530100085301000853010008F0
:1000A00053010008530100085301000835320008CD
:1000B000530100080348854600F064FB00480047F0
:1000C000D5390008B80E0020084B196808682030A0
:1000D00080F30988022080F31488BFF36F8F3FBC40
:1000E000AE4608BC04BC62B61847000054000020AD
:1000F000EFF3108072B6704780F310887047EFF30B
:1001000009800E4B1A6820381060F0C044464D46F6
:1001100056465F46F0C008B572B604F07FF962B685
:100120000CBC116808681030F0C8A046A946B24659
:10013000BB4680F309882038F0C8184754000020D7
:100140000448804704480047FEE7FEE7FEE7FEE775
:10015000FEE7FEE7412B0008B500000830B50B466E
:10016000014600202022012409E00D46D5409D4291
:1001700005D31D469540491B254695404019154617
:10018000521E002DF1DC30BD10B5202A04DB0846DC
:10019000203AD040002110BD0B46D340D04020244F
:1001A000A21A91400843194610BD03460B439B0712
:1001B00003D009E008C9121F08C0042AFAD203E0DC
:1001C0000B780370401C491C521EF9D27047D2B202
:1001D00001E00270401C491EFBD270470022F6E786
:1001E00010B513460A4604461946FFF7F0FF2046AD
:1001F00010BD30B504460020034600E05B1C93426E
:1002000003D2E05CCD5C401BF8D030BDF0B50746B2
:100210000846584087B0C00F049048000E46590069
:1002200040084908BC1A884105D2384631461E4666
:1002300017460B4602465800400810434CD0300D7C
:10024000039040055900400D490D0590401A029059
:10025000402872DA18030121000B090508430190B8
:1002600004980092002805D001995242002088414C
:1002700000920190029840210A1A0199009800F01A
:10028000ADF905460C466B4607CB00F0B7F9C0192F
:100290007141039A0E0D0023D71756401A467A4033
:1002A000164344D0049A002A2DD0029A012A039AB8
:1002B00015DC1205C01A914101263605001C71415A
:1002C000D20F059ED2070093019202962A4623463A
:1002D00000F0B4F907B0F0BD38463146FAE716052C
:1002E000224A0F46B218C01AB74101210905001C65
:1002F0004F4100187F41114618187941E20F104311
:100300006D19644113E0E2076D0815436408C207E4
:100310001443039A01261205C01A91413605001CA8
:100320007141CE07400830434908C01851412A4660
:10033000234600F076F9CDE7FFE70498012240005C
:10034000C117121A00238B4104983146C417381A7A
:10035000A141EEE730B40124E407634030BC55E727
:1003600030B40124E407614030BC4FE70000E0FFF7
:10037000F0B51FB488B00B9909980024484009993A
:10038000C00F490049080991C0070B990090490026
:1003900049080B9109990898A64608431CD00B9967
:1003A0000A98084318D0099801244000420D4800DB
:1003B000410D099824050003000B204309900B9878
:1003C0000003000B20430B9050181C4940180022DA
:1003D00001901446104605E0002001460DB0F0BD26
:1003E000032801DA034600E003239C46C11A0AAE43
:1003F0000AE05F0008ADED5B4F00F75B7D4300272F
:10040000AA187C41491C5B1E6145F2DD410004AB2A
:100410005A522104120C0A43240C401C0828DFDB2A
:10042000019802900099704601910090059B049AF2
:100430000799069800F002F9D0E700000DFCFFFFD5
:10044000F0B50C465C4085B0E40FE40703944C0023
:100450000026640859009446490802460296224341
:1004600021D062460A431ED06200570D4A000E0397
:100470002303550D012402462C492405781B1B0B30
:10048000360B401823432643614600901C46501A01
:10049000B44103D30098401C009002E092180098E9
:1004A0005B41002803DA0020014605B0F0BD0020C2
:1004B000012109050746864611E064461D46141BC6
:1004C000B54106D36546521BB341744607430C43FE
:1004D000A646CD0740084908284392185B410546C7
:1004E0000D43EAD11046184313D0604619465040D8
:1004F0007140084306D06046101AB34106D201226B
:10050000002306E000220123DB0702E00122D243A0
:100510005310009874460105381C6141029C039DEC
:100520000019694100F07DF8BFE70000FD030000FD
:100530000EB5C217C10F5040CA0740180021054B25
:100540000293019200910A460B4600F077F803B03F
:1005500000BD00003304000070B5CD0F4A00090350
:100560000123090B1B0519430B4BED070024520D0A
:100570009A4201DA002070BD074B34339A4203DC03
:100580009A1AFFF701FE02E00449511888402C43F3
:10059000F1D0404270BD0000FF030000CDFBFFFF23
:1005A0004A0009030123090B1B051943094B10B528
:1005B000520D9A4201DA002010BD064B34339A42A4
:1005C00003DC9A1AFFF7E0FD10BD0349511888407B
:1005D00010BD0000FF030000CDFBFFFF10B5202A77
:1005E00004DB0146203A9140002010BD91402023B9
:1005F0009C1A0346E3401943904010BD10B5202AD1
:1006000006DBCB170846203A1041C1170B4306E022
:100610000B461341D0402024A21A914008431946AA
:1006200010BD10B5002B08DA0024401C614192185F
:100630005B411A4301D14008400010BDF0B51FB422
:1006400082B005460C0003D0084602F01DFE02E011
:1006500002F01AFE20300246009021462846FFF79D
:10066000BDFF049B059A04460F46184311430843F7
:1006700014D0184610431BD0009840210A1A18467F
:100680000599FFF781FD05460E46009A05990498E5
:10069000FFF7A4FF084305D0012004E020463946B7
:1006A00007B0F0BD0020C11705430E432C4337436C
:1006B00000990E986305401A7905E40A00220C435C
:1006C000FD0A0A3002D500200146E9E701051019AC
:1006D00069410C9C0D9D00196941FFF7A2FFDFE7FE
:1006E000FEB500231A461B1A8A4103DB002001468F
:1006F00003B0F0BD4A000D0301212D0B0905520D79
:100700000D43D10702D100186D41521E5110FF3127
:10071000FF310131002704463E46384600970191DB
:100720000246012100200905FFF72EFDC319714182
:10073000F818324684468E464A4161462846611A78
:10074000904104D36046241A954176461F462419E9
:1007500000986D41401C00903428E1DDF9193046C5
:100760007041091BA84103D20022D243134601E085
:100770000022134601980105381C7141FFF751FF13
:10078000B6E70000064C0125064E05E0E36807CCFD
:100790002B430C3C98471034B442F7D3FFF78EFC40
:1007A000684700088847000810B50146406A426C57
:1007B00050231A420AD1416C012252021143416472
:1007C0000168CA681205920F05D020E0C06B026B69
:1007D0000846904710BD026A002A18D10A6812071D
:1007E00015D58A6853070122002B09DB4B680C24BE
:1007F000A3434B60416C130299431143416406E0EB
:10080000416C202319434164816C1143816400F0E1
:10081000CFFA10BD10B5406A416C402211434164CB
:10082000816C04221143816400F057FB10BD10B5A8
:10083000406A00F051FB10BDF8B50446002000905E
:10084000206881688907890F012905D10168C907D6
:100850002CD1C168090429D48168154A1026114099
:100860000125002915D18168294381601248114969
:100870000068FFF773FC00E0401E00900028FBD1E9
:1008800000F0D2FE07460CE000F0CEFEC01B0228AE
:1008900007D9606C30436064A06C2843A0640120D9
:1008A000F8BD20680068C043C007EDD10020F8BD46
:1008B0001700008040420F004800002010B5024899
:1008C00000F09AFC10BD00000C04002010B5024896
:1008D00000F092FC10BD00006003002010B504463B
:1008E0000068054940181421FFF738FC8000206497
:1008F0000248E06310BD0000F8FFFDBF00000240A9
:1009000030B5056C0124AC40C56B6C600468636055
:100910004368102B036803D099600068C26030BD43
:100920009A600068C16030BD1FB503F042F90290C3
:1009300003F002F86E4CFD27F726009002F09EFEB1
:100940006B4D019068462D1F8088A8806948296BEF
:100950000918FF202A30814203D82078012108435A
:10096000207002F031FF019061486946001F8988BC
:10097000C18000206946088020786A46C107117846
:1009800003D0022211436A4600E039401170127808
:1009900041060BD504210A4369460A705107C90F65
:1009A000CB0069460A7832401A430EE0C106C90FEF
:1009B0003240C9000A4369460A700A78FB210A409E
:1009C0008106C90F89000A4369460A7061788A075F
:1009D0006A460ED51078102210436A461070C00681
:1009E000C00F13784001DF22134003436A4613709F
:1009F0000FE01378DF221340C009400103436A4629
:100A000013701078EF221040CA07D20E10436A46C6
:100A10001070107842064807520EC00FC001024302
:100A2000684602700278BF2002400807C00F8001AC
:100A300002436846027042782D483A40801C017893
:100A4000C807800F0243684642704078420852004F
:100A50008807C00F024368464270A96B2648FF39D9
:100A6000F13981426A46517803D8082211436A4617
:100A700000E031405170E96BFF39F1398142507823
:100A800002D80421084301E0FB21084050700120F6
:100A900002F0C6FE194D0621695E884214DB012072
:100AA00002F0BEFE0421695E88420DDC022002F0E5
:100AB000B7FE0E21695E884206DB022002F0B0FE1E
:100AC0000C21695E884204DD6846017801200143FB
:100AD00003E06846007841084900684601700088D4
:100AE00002F048FF642102A803F056F826E7000050
:100AF0000C000020AEFDFFFFC2070000A403002091
:100B000006490020C86106480169042211430161B9
:100B1000016940221143016170470000E009002093
:100B200000200240064A0021D16106490A690223D9
:100B30001A430A61486108694022104308617047FE
:100B4000E00900200020024010B5054B0022DA61C8
:100B5000044A1369012423431361018010BD00007E
:100B6000E00900200020024010B50B4A0020D168A7
:100B7000CB060A4904D5C86902231843C86110206E
:100B8000D3685B0705D5CB6901242343CB610421DE
:100B90000843D06010BD000000200240E0090020A2
:100BA00070B5054600F040FD0646104C0AE0681C92
:100BB00008D0002D04D000F037FD801BA84201D9D9
:100BC000032070BDE068C007F1D1E068800601D560
:100BD0002020E060E068C00602D4E068400703D54A
:100BE000FFF7C2FF012070BD002070BD0020024051
:100BF000F8B505460446403528780026012808D077
:100C000001202870206881688907890F012908D18F
:100C100001E00220F8BD0168C90738D1C1680904A4
:100C200035D4616CFF220132914302221143616489
:100C3000C1688907890F0091C16889088900C1606E
:100C40002068816892071143816000F0EDFC07463F
:100C50000EE000F0E9FCC01B022809D9606C0221FB
:100C60008843102108436064002028700120F8BDEB
:100C7000206880680028ECDB2068C168009A114376
:100C8000C160606C80088000401C606404E0606C9F
:100C90002021084360640126002028703046F8BDFA
:100CA000F8B500250446403400952278012A39D051
:100CB0000122227003689E68760767D4384F4E6819
:100CC000BE424DD09E6A0F78BA4016439E62012301
:100CD000826B1B079A421FD0012A1DD0022A1BD00B
:100CE000032A19D0042A17D0052A15D0062A13D0B2
:100CF000072A11D002688B6856697607760FB342CF
:100D00000AD05369DB08DB005361006842690B7A43
:100D10005B075B0F1A4342610A68102A04D0112A4C
:100D200002D038E00220F8BD1E488368102A07D0A0
:100D300001229205134383600868102803D02AE03B
:100D40000122D205F6E7194817490068FFF706FAAD
:100D50000A21484300E0401E00900028FBD11AE021
:100D6000986A0E78B240904398620968102901D0C1
:100D7000112910D10B488268102904D0012189055E
:100D80008A43826007E00121C905F9E7416C20220E
:100D9000114341640125002020702846F8BD000061
:100DA000011000000027014040420F0048000020D1
:100DB00070B5444C0022A256434D5000295EA368F2
:100DC000521C5E1A41490B881BB22B529B19A3601F
:100DD00080352B5E2669F61A0B891BB22B529B19A4
:100DE000236140352B5E6669F61A8B891BB22B5244
:100DF0009B19636140352B5EA669F61A0B8A1BB2FC
:100E00002B529819A061486831494018E169404364
:100E1000401851B2E0612170202921DB00252570A6
:100E20006178294E49004036715EE268511AE160EE
:100E3000C117C90E08184011FFF77AFB03F0E2F959
:100E4000FFF78AFB01B260784200B152E268401CB1
:100E50008918C0B2E561E1606070202800D3657038
:100E6000A0681C4DC117C90E08184011E062E06867
:100E70000926C117C90E0818401120632069F6061B
:100E8000C117C90E0818401160636069C117C90E07
:100E900008184111A163A069C217D20E10184011A1
:100EA000E063A94204DB00220821304600F0B5FBD4
:100EB000E06BA84204DB00220221304600F0ADFBCB
:100EC00070BD00000800002094000020B80300203E
:100ED000F4F7FFFF8A0E000070477047F8B5002551
:100EE0000446002803D0606C002802D008E00120EE
:100EF000F8BD0020A06440210855204600F0A8F865
:100F0000606C1022C006002870DB206881684907E9
:100F10006CD4616C130199430223194361648168A5
:100F20008907890F012905D10168C9070FD1C16857
:100F300009040CD4C16818239943A3681943C160FC
:100F40002068016963688900890819430161206884
:100F5000C1683D4B1940C160A069E1698003C903C4
:100F60000843216A4B031843636B012B02D0012312
:100F70001B0300E000231843E36818432369022B96
:100F800009D000231843236B666A5B0018430123D2
:100F9000012E02D00AE00423F4E7002927D0616C77
:100FA000202631436164A16C1943A164A16A0E46F5
:100FB000FF3EC23E02D0E66A314308432168CE6854
:100FC0000643CE600126A16B3607B14213D001293A
:100FD00011D002290FD003290DD004290BD00529E7
:100FE00009D0062907D0072905D010E028E0012103
:100FF00009040843DAE721684E69F608F6004E61F5
:1010000021684E69278F7F077F0F3E434E6121681D
:10101000C9680E4E3140814207D10020A064606C47
:1010200080088000401C606408E0606C02218843F6
:1010300010436064A06C1843A06401252846F8BDE5
:10104000606C10436064F8E71902FEFFE7FF3F831E
:10105000F0B505460068184987B088422AD117487C
:1010600081694715394381618069002638400590C0
:101070003520009003200190092069460296C006A1
:1010800000F022FA0E480F4C41C4A7608020266071
:1010900060600001E0602020666120610948083C32
:1010A00000F0F8F8002803D0792107A002F0D6F864
:1010B000EC63656207B0F0BD0024014000100240FF
:1010C000080002400C0400202E2E2F5372632F7351
:1010D000746D3332663078785F68616C5F6D737001
:1010E0002E630000F7B504460068002580684007BD
:1010F0003DD426464036307801280AD00127377083
:10110000E069012807D02046FFF796FB050002D0D2
:101110002EE00220FEBD606C16490840FF2101311F
:10112000084360640020A0643070E16B124888625C
:10113000E16B1248C862E16B1148086321681C200A
:101140000860206841681022114341602068C1682E
:101150003943C1602168E06B4031029B019A00F085
:10116000C5F82068816804221143816000E00225EF
:101170002846FEBDFEF1FFFFA90700082F08000862
:101180001508000801680A680E239A430A6001687E
:101190000A68520852000A600121036C0A469A400C
:1011A000C36B5A60203041700021017008467047BF
:1011B00070B50024014620314A78022A03D0042168
:1011C0008163012416E0026813680E25AB431360A7
:1011D000026813685B085B0013600122056C13460C
:1011E000AB40C56B6B604A7000220A70416B0029EE
:1011F00000D08847204670BDF0B4C16B0D6801680F
:101200000C680422066C1346B3402B420DD06307D2
:101210000BD50B689B0602D40B6893430B60016CE3
:101220008A40C16B4A60C16A19E00227B740024692
:101230002F4001232032002F15D0A70713D50C68AB
:10124000A40604D40C680A25AC430C605370036CEC
:1012500002219940C36B596000211170816A0029F5
:1012600016D0F0BC08470827B7402F4210D02407FB
:101270000ED50C680E25AC430C60046C1946A140D9
:10128000C46B61608363537000211170016BE6E7EA
:10129000F0BC704770B5040024D0022021462031F4
:1012A0000D464870226811680F48A36801406068C5
:1012B00026691843E3683343184363691843A369F5
:1012C0001843E3691843084310602046FFF706FB04
:1012D0000020A062E06220636063A0630121697066
:1012E000287070BD012070BD0FC0FFFFF8B5044627
:1012F0008C46203001780025012909D0012606708E
:1013000041780027012905D0077002252846F8BD3D
:101310000220F8BD02214170A763206801684908D6
:101320004900016061462046FFF7EAFAE06A0028BA
:101330002068016802D00E22114306E00A22114300
:1013400001602068016804229143016020680168FF
:1013500031430160DAE731B500F066F9009C0546DB
:10136000601C00D0641C00F05FF9401BA042FAD35F
:1013700038BD0000F8B5054623480F46017E01261A
:1013800001290BD0012101762868204C012807D0C3
:101390002046FFF705FC002813D030E00220F8BDFE
:1013A0002046FFF7FDFB002829D1FFF7A9FB2046C7
:1013B000FFF7F6FB064616480169042291430161D6
:1013C0001DE00020C04338606C6812E02046FFF743
:1013D000A9FB0E48FFF7E4FB06460D48026902210F
:1013E0008A430261002E01D03C6008E001208002A7
:1013F0002418A868810268680818A042E6D8024844
:10140000002101763046F8BDE009002050C30000FD
:10141000002002400348016980221143016100203D
:101420007047000000200240F0B51FB407461A487C
:101430000024017E15461E46012907D001210176B0
:101440001648FFF7ADFB002803D020E0022005B0CE
:10145000F0BD012F02D0022F00D004272201284620
:101460003146FEF791FE81B2019862001018FFF735
:101470006BFB0A48FFF794FB09490A6952085200BE
:101480000A61002803D1641CE4B2BC42E6D30249DD
:1014900000220A76DBE70000E009002050C30000CC
:1014A0000020024005480169090605D5044941604C
:1014B000044941600020704701207047002002402D
:1014C00023016745AB89EFCDF8B500238DE00124FA
:1014D0009C40A44622407DD04C68022C01D0122CA6
:1014E0000CD1DC08A40027183C6A5D07ED0E0F261E
:1014F000AE40B4430E69AE4026433E6205685E00CE
:101500000324B4400F79A543BF07BF0FB7402F4353
:1015100007604D68012D05D0022D03D0112D01D09B
:10152000122D0ED18568CF68A543B7402F43876041
:1015300047686546AF430D79ED06ED0F9D403D438D
:101540004560C568A5438C68B4402C43C4604C68B2
:10155000E40049D5284CA56901263543A561A46955
:101560009D0834400094254CAD002F19BC689D07A0
:101570002E0F0F25B540AC430925ED06A84201D139
:1015800000250FE01E4DA84201D101250AE01D4DA6
:10159000A84201D1022505E01B4DA84201D1032537
:1015A00000E00525B5402543BD60184C25684E6810
:1015B0009543F60300D51543256065684E6895434D
:1015C000B60300D515436560A5684E689543F602DD
:1015D00002D500E008E01543A560E5684E68954334
:1015E000B60200D51543E5605B1C0A681446DC4072
:1015F00000D06CE7F8BD0000001002400000014080
:101600000004004800080048000C004800040140A5
:101610000069084000D001207047002A01D0816194
:101620007047816270470000014800687047000001
:101630004C00002070B504000FD0216813480860EA
:1016400021681348086003CC41602068083C216889
:101650008860FFF7E9FF054608E0012070BDFFF74D
:10166000E3FF401B272801D9032070BD2068C06814
:101670000028F4D120680269E1688A4201D0016142
:1016800001E004490160002070BD0000CCCC0000E6
:1016900055550000AAAA0000006802490160002018
:1016A00070470000AAAA000002480168491C0160B6
:1016B000704700004C00002010B506480168102259
:1016C00011430160002000F007F800F041F800200D
:1016D00010BD00000020024000B5014687B0002286
:1016E000112000F061F8112000F054F81348C2698D
:1016F00010210A43C261C0690840059004A96846E8
:1017000000F06CF900F08CF90D49FEF727FD0E4949
:101710000C4A0A600D4A401ECA60486000200861F9
:101720008860084600F042FC002802D0012007B083
:1017300000BD054800F07CFCF9E700000010024005
:1017400040420F0000100040A0090020E703000005
:1017500008B50F48816901221143816181691140F7
:101760000091C26901040A43C261C06900220840B5
:1017700000901146501F00F017F803210022481F67
:1017800000F012F803210022081F00F00DF808BD38
:1017900000100240C106C90E0120884001490860BE
:1017A0007047000000E100E010B501F03BF910BD0A
:1017B000F8B505460068354CC00352D5E0690026EF
:1017C000C00007D4E16920040143E161E1690140FF
:1017D000012600912E480168C90510D401688215C0
:1017E00011430160FFF720FF074604E0FFF71CFFED
:1017F000C01B642824D826480068C005F6D5206A96
:1018000003273F02384020D06968394081421CD00C
:10181000206A226AB843012109040A432262226A2B
:101820008A4322622062C0070FD0FFF7FDFE0090BE
:1018300008E0FFF7F9FE0099411A1648814201D9E4
:101840000320F8BD206A8007F3D5206A6968B84391
:1018500008432062002E04D0E16901200007814383
:10186000E1612878C00705D0206BA9688008800056
:10187000084320632878800605D5206B1021884313
:10188000E968084320630020F8BD00000010024012
:10189000007000408813000070470000F8B505464E
:1018A00044480E460068C007C00FB0420AD2414803
:1018B000016849084900314301600068C007C00F52
:1018C000B0425CD128783C4C800705D56068F02197
:1018D0008843A968084360602878C0073FD06868DB
:1018E000012813D02168022813D08907002946DA7D
:1018F00061688908890001436160FFF795FE6968A6
:10190000074601290DD0022917D024E02168890358
:10191000ECE78901EAE7FFF787FEC11B2748814210
:1019200017D860680007800F0128F4D117E0FFF78F
:101930007BFEC11B214881420BD860680007800FE5
:101940000228F4D10BE0FFF76FFEC11B1B48814258
:1019500001D90320F8BD60680007800FF3D1154856
:101960000168C907C90FB1420BD90168490849008C
:10197000314301600068C007C00FB04201D00120B0
:10198000F8BD2878400706D560680721090288431A
:10199000E9680843606000F053F86168084A090686
:1019A000090F515CC840074908600020FFF794FE0A
:1019B0000020F8BD00200240001002408813000003
:1019C0002847000848000020034801680122D2048B
:1019D00011430160704700000010024010B507225B
:1019E00002600A4A53689B079B0F43605368F024C8
:1019F00023408360526807231B021A40C2600448D8
:101A00000068C007C00F086010BD00000010024051
:101A10000020024001480068704700004800002094
:101A20000448054900684968044A4905490F515C62
:101A3000C8407047480000200010024038470008A6
:101A400010B513A30FCB88B06C460FC414A30FCBF3
:101A50000FC417494A680C20134603401548042B4D
:101A600002D0082B02D0401008B010BD93021B0F0B
:101A70006C46E45CC96A04AB0907090F595CD203E0
:101A800003D5FEF76BFB6043EEE70B486043EBE7E3
:101A900002030405060708090A0B0C0D0E0F1010AF
:101AA0000102030405060708090A0B0C0D0E0F10AE
:101AB000001002400024F40000093D0010B5044C61
:101AC000A068000603D5FFF7E7FE8020A07210BDD6
:101AD00000100240FEB504460078D04DC00747D044
:101AE00068680007800F012807D068680007800F2A
:101AF000022809D16868C00306D52868800337D555
:101B0000606800287ED033E0012062680004012A6A
:101B100011D08100002A01D0052A10D02A68824302
:101B20002A602868884328606068002814D0FFF77E
:101B30007BFD06460CE0296801432960F4E72A682A
:101B40000A432A60F7E7FFF76FFD801B64286FD810
:101B500028688003F7D50BE0FFF766FD064604E032
:101B6000FFF762FD801B6428F1D828688003F7D452
:101B700020780126800700283BDA68680007800F7C
:101B800007D068680007800F022809D16868C00381
:101B900006D42868800715D5E068012832D111E005
:101BA000E0680028286815D030432860FFF73CFD26
:101BB000074604E0FFF738FDC01B0228C7D8286895
:101BC0008007F7D52868F82188432169C9000843B0
:101BD00028600EE0400840002860FFF725FD07461A
:101BE00004E0FFF721FDC01B0228B0D82868800759
:101BF000F7D42078000724D5E0690028686A10D05F
:101C0000304300E008E16862FFF70EFD074604E09C
:101C1000FFF70AFDC01B022899D8686A8007F7D52C
:101C20000FE0400840006862FFF7FEFC074605E051
:101C30009DE0FFF7F9FCC01B022888D8686A80077E
:101C4000F7D4207804274007002860DA00200190AC
:101C5000E869C00008D4E969B8060143E961E969A7
:101C600001400120009101906D480168C90511D41F
:101C70000168821511430160FFF7D6FC009005E072
:101C8000FFF7D2FC0099401A642870D864480068B5
:101C9000C005F5D5A06801280AD0002801D0052884
:101CA00010D0286A400840002862286AB84301E042
:101CB000286A30432862A068002812D0FFF7B4FCDD
:101CC00000900AE0286A38432862F1E7FFF7ACFC8D
:101CD0000099411A5348814249D8286A8007F5D5AE
:101CE0000DE0FFF7A1FC009006E0FFF79DFC0099D6
:101CF000411A4C4881423AD8286A8007F5D40198A5
:101D0000002804D0E969012000078143E9612078B7
:101D1000C00635D5606901280CD0401D686B23D002
:101D200038436863686B400840006863FFF77CFCD9
:101D3000064622E0686B38436863686B304368632B
:101D4000FFF772FC064604E0FFF76EFC801B0228DA
:101D50005BD8686B8007F7D5686BF8218843A16969
:101D6000C900084368630BE0B8436863F4E74CE0DC
:101D7000FFF75AFC801B022847D8686B8007F7D40E
:101D8000206A002846D069680907890F022943D0D4
:101D9000012636060228286805D0B0432860FFF7E0
:101DA00043FC044633E0B0432860FFF73DFC0746A0
:101DB00004E0FFF739FCC01B022826D82868800100
:101DC000F7D4E86AE16A000900010843E862616A41
:101DD000A06A084369683D22120491430843686081
:101DE000286830432860FFF71FFC044604E0FFF733
:101DF0001BFC001B022808D828688001F7D509E0E1
:101E0000FFF712FC001B022801D90320FEBD286841
:101E10008001F5D40020FEBD0120FEBD001002406F
:101E20000070004088130000FFB581B016460F46D1
:101E3000040005D025466035687A002803D007E005
:101E4000012005B0F0BD00202872204600F084FB80
:101E50002420687220680168490849000160204612
:101E600001F01CF90128ECD0606A002802D020465D
:101E700000F0F0FF20688168012292031143816025
:101E8000206881685200914339438160049871054C
:101E90000004084321680A68064B1A4002430A609E
:101EA00020680168012211430160204601F037F8E3
:101EB000C7E70000FFFF00FC04220449042808696A
:101EC00002D09043086170471043FBE700E000E058
:101ED000094910B5401E884201D9012010BD074CA8
:101EE00060610321081F00F09DFD0020A061072014
:101EF0002061002010BD0000FFFFFF0000E000E0B7
:101F00007047704770B5034620331A7F012A27D0E7
:101F100001241C7702225A770326CA683602B2438C
:101F20008E6800253243A602B2434E6800683243F1
:101F3000E602B2430E6832432603B2430E693243CF
:101F40006603B2434E6989693243A603B2430A432A
:101F5000E603B2430A4342645C771D77002070BDFC
:101F6000022070BD70B502462032137F012B1BD0BA
:101F70000123137702245477046865687026B543FB
:101F80006560046865680E68354365600468A56827
:101F90008026B543A5600068846849680C43846066
:101FA00053770020107770BD022070BD70B504001B
:101FB00005D025462035687F002802D006E00120A4
:101FC00070BD00202877204600F00AF802206877CC
:101FD000211D206800F0F2FD01206877002070BD0F
:101FE00008B5104A0168104891420FD1C2698115A5
:101FF0000A43C261C06900220840009003211320F7
:10200000FFF7D2FB1320FFF7C5FB08BD074A91423B
:10201000FBD18269012149040A4382618069084039
:10202000009008BD00200040001002400044014024
:102030000268D36801210B43D360006802680A4339
:10204000026000207047704770B50446006801695F
:102050000025C9438907002915DBC168C9438907E1
:1020600011D4E91E01610120207720688069800772
:10207000204602D0FFF7E7FF04E000F0AFF820466B
:1020800000F044F9257720680169C943490717D44E
:10209000C168C943490713D40421C943016102201F
:1020A0002077206880698005800F204602D0FFF7E6
:1020B000CAFF04E000F092F8204600F027F92577E7
:1020C00020680169C943090716D4C168C9430907D3
:1020D00012D40821C9430161042020772068C06917
:1020E0008007204602D0FFF7AEFF04E000F076F84C
:1020F000204600F00BF9257720680169C943C9061D
:1021000017D4C168C943C90613D41021C94301615A
:10211000082020772068C0698005800F204602D003
:10212000FFF791FF04E000F059F8204600F0EEF8C8
:10213000257720680169C943C90708D1C168C94327
:10214000C90704D1891E0161204600F043F92068C7
:102150000169C943090609D4C168C943090605D400
:102160008021C94301612046FFF7CAFE206801694A
:10217000C943490609D4C168C943490605D4402169
:10218000C9430161204600F02FF920680169C94365
:10219000890609D4C168C943890605D42021C943E9
:1021A00001612046FFF7ADFE70BD000000B500687C
:1021B000084985B088420BD180150090022100208B
:1021C000019102900491039069460348FFF77CF95E
:1021D00005B000BD00440140000400487047F8B558
:1021E000064604462036307F0D4601280DD00120DA
:1021F0003077022070770427002A08D0042A16D0EE
:10220000082A2AD00C2A4DD137E00220F8BD2068D8
:1022100000F024FD20688169082211438161206853
:102220008169B9438161206881692A6912E0206867
:1022300000F058FD206882690121C9020A438261C9
:10224000206881690122920291438161206881693D
:102250002A6912021143816124E0206800F082FDA6
:102260002068C26908210A43C2612068C169B94374
:10227000C1612068C1692A6912E0206800F0B4FDDC
:102280002068C1690122D2021143C1612068C2697C
:10229000012189028A43C2612068C1692A69120248
:1022A0001143C1610120707700203077F8BD70B50F
:1022B000040005D025462035687F002802D006E0BE
:1022C000012070BD00202877204600F00BF8022086
:1022D0006877211D206800F071FC012068770020DC
:1022E00070BD000008B500680649884208D106485C
:1022F0008269012109040A438261806908400090D3
:1023000008BD00000040014000100240704700007E
:1023100010B504460068012200F094FC0C482168C6
:10232000814208D00B48814205D00B48814202D03F
:102330000A48814204D1486C0122D2031043486408
:1023400020680168012211430160002010BD0000D7
:10235000002C014000400140004401400048014081
:1023600030B504460068002200F06CFC154A1448A1
:1023700021689310814208D01348814205D0134848
:10238000814202D0124881420AD1086A104207D124
:10239000086A184204D1486C0125ED03A84348643B
:1023A0002068016A114206D1016A194203D101680D
:1023B000490849000160012020346077002030BDC9
:1023C000002C014011110000004001400044014078
:1023D0000048014010B500680249884201D1FFF76A
:1023E00063F910BD00100040704770B504466030BE
:1023F0000546407A21280FD12068816809060BD54F
:102400008168802291438160206E002801D0FEF710
:10241000B9FE204600F0FCFDA87A22280FD12068E2
:10242000816849060BD58168402291438160606EC6
:10243000002801D0FEF7A6FE204600F0CDFD0020CA
:1024400070BD7047F8B503680446D96918680D0770
:102450002D0F07D18A0605D5820603D5204600F048
:10246000E0FDF8BD9A68002D64D0D507ED0FFF267A
:10247000213606402E435DD0CE0706D0C60504D5D2
:1024800001261E62E36E3343E3668F0702230426B0
:10249000002F06DAD70704D027683B62E76E374380
:1024A000E7664F0706D5D20704D022681662E26EAF
:1024B0001A43E2660A0709D5202202402A4305D0C2
:1024C000236808221A62E36E1343E366E26E002A71
:1024D000C7D0890604D5800602D5204600F0A1FDAC
:1024E000E06E000703D42068806840061CD52046B3
:1024F00000F072FD20688168490611D5816840228C
:1025000091438160606E00280AD012494163606E79
:10251000FEF74EFE0028A4D0606E416B8847F8BDE0
:102520002046FFF78EFFF8BD2046FFF78AFF002008
:10253000E066F8BD0A0605D5020603D5204600F080
:1025400045FEF8BD4906FCD54006FAD5204600F008
:1025500052FDF8BD312F0008F0B50646006821494C
:1025600087B088423CD120488269012189030A430F
:1025700082618069022408400590881000250327A5
:102580006946B1C10120049009206946C006FEF7E2
:102590009BFFC0206946B1C1694614480495FEF707
:1025A00093FF1348134C21C42560A560E5602561A5
:1025B0008020656160600F48083CFEF76BFE0028D4
:1025C00004D0FF2148310CA000F048FE74660022C0
:1025D00003211B206662FFF7E7F81B20FFF7DAF8FC
:1025E00007B0F0BD00380140001002400004004870
:1025F00030000240600300202E2E2F5372632F7391
:10260000746D3332663078785F68616C5F6D7370BB
:102610002E630000F8B5054604466035A87A2028E8
:1026200041D100290BD0002A09D00123A0681B0347
:10263000984206D12069002803D1C80701D00120A3
:10264000F8BD287A01282ED0012028725820616513
:1026500002530026E6662220A872616E1348886243
:10266000616E1348C862616E12480863606E13465B
:102670004663676D21683A462431606EFEF736FE88
:102680002E7220680168FF22013211430160206828
:1026900081680122114381602068816840221143D2
:1026A00081600020F8BD0220F8BD00008F2F0008D7
:1026B000CF2F0008452F00087047704730B50346FC
:1026C00060335C7A202C23D100290BD0002A09D05A
:1026D000012584682D03AC4206D10469002C03D186
:1026E000CC0701D0012030BD1C7A012C10D0C16470
:1026F000014640310A824A820021C16621225A7273
:10270000197200680168802211430160002030BD09
:10271000022030BD7047FEE73EB52649264800241A
:1027200012C00460446004614461022584618560D4
:102730000821C461C160490101628900416201212F
:10274000C46281620838FEF7C9FB002800D0FEE7AA
:10275000012000030190062002900094694616486B
:10276000FEF79EFA002800D0FEE769461248009561
:10277000FEF796FA002800D0FEE704200090694694
:102780000D48FEF78DFA002800D0FEE705200090E6
:1027900069460948FEF784FA002800D0FEE71120B8
:1027A000009069460448FEF77BFA002800D0FEE757
:1027B0003EBD000000240140D4010020F0B53C489B
:1027C00087B042690121C9040A43426142690A4053
:1027D00005924269C9000A43426142690A40059272
:1027E000426949110A43426142690A4005924269BD
:1027F00049000A43426140692E4E08400927FF06FE
:102800000590002231463846FEF707FF01223021AD
:102810002948FEF702FF07204003002401256A46ED
:1028200031C269462548FEF74FFE02946946384694
:10283000009601950394FEF747FEC0260194694671
:10284000384600960294FEF73FFE1D480090019422
:10285000694602941848FEF737FE01946946194804
:1028600000960294FEF730FEE803032600906946C6
:10287000019602943846FEF727FE0820009069462C
:10288000019602940C48FEF71FFE3020009002943F
:102890006946019503940848FEF716FE68026A46E9
:1028A00031C269460448FEF70FFE07B0F0BD0000D4
:1028B000001002400A0F0000000400480008004811
:1028C00007FC00000014004810B5214890B01F49D3
:1028D000016000240F21846041607D210461C900F2
:1028E0004461C16080218161FFF7E1FC002800D0D4
:1028F000FEE720200EA911C115480839FFF732FB69
:10290000002800D0FEE7602000900120069401908E
:102910000294039404940594002269460C48FFF73E
:102920005EFC002800D0FEE70120079440030894D5
:102930000C9009940A940B9407A90D940448FFF78E
:10294000E1FA002800D0FEE710B010BD00400140C1
:102950007002002010B520488EB01E49016000248E
:10296000782184604160046164214461C1608021F8
:102970008161FFF71BFB002800D0FEE71648FFF738
:1029800096FC002800D0FEE76020009032200694DC
:1029900001900294039404940594002269460E4821
:1029A000FFF71DFC002800D0FEE70120079440033C
:1029B00008940C9009940A940B9407A90D94064866
:1029C000FFF7A0FA002800D0FEE70348FFF7EEFB70
:1029D0000EB010BD00440140B002002010B50E48FA
:1029E0000C4901604B21C9014160002101225203C1
:1029F0008160C26001618161C1610C22016242613A
:102A00000B4641620A46FFF70FFA002800D0FEE7A6
:102A100010BD000000380140F002002010B5FFF7A3
:102A20004DF810BD8307FF22DB0E9A408907090E7F
:102A3000994000280BDA0007000F0838830808487F
:102A40009B001818C36993430B43C3617047830805
:102A500004489B001B18186890430843186070478F
:102A600000ED00E000E400E07047000008B501F070
:102A7000A0F809250E4CED067D26F6000090208A70
:102A8000002801D0012200E0002208212846FEF79C
:102A9000C4FD608A012202212846FEF7BEFD0548DA
:102AA000FEF7FAFD3146684601F076F8E7E70000E8
:102AB000A40300202002002010B501F085F810BD0D
:102AC00030B595B001241920059400900194102090
:102AD000022506A931C10003099000010A900B9458
:102AE0006846FEF7F7FF002800D0FEE70D950720A7
:102AF00000250C900E9501210CA80F95FEF7CEFE37
:102B0000002800D0FEE710A812951094FEF750FEA2
:102B1000002800D0FEE7FEF757FFFEF77BFF7D2180
:102B2000C900FDF71BFBFFF7D3F90420FFF7C4F939
:102B300003210022081FFEF737FE15B030BD00004C
:102B4000134801680122114301604168114A114094
:102B500041600168104A114001600168012292043D
:102B60009143016041683F22120491434160C16A70
:102B700009090901C162016BFF221432914301630B
:102B8000416B4908490041630021816070470000A2
:102B9000001002400CB8FF08FFFFF6FE10B5024817
:102BA000FFF752FA10BD00003002002010B50248B5
:102BB000FFF74AFA10BD0000A0090020F0B5026836
:102BC0001A4B1B4C984201D0A04203D17025AA4356
:102BD0004D682A43174D184E184F98420AD0A0420C
:102BE00008D0174CA04205D0A84203D0B04201D073
:102BF000B84205D11446032212029443CA68224304
:102C00008024A2434C69224302608A68C2620A6837
:102C10008262984205D0A84203D0B04201D0B842A7
:102C200001D10969016301214161F0BD002C01401E
:102C300000040040004001400044014000480140C1
:102C40000020004010B50123046A8B409C430462BD
:102C5000036A8A401343036210BD0000F0B5026AA4
:102C6000520852000262056A436882697024A243D6
:102C700092080C6892001443022295438A68164E0B
:102C80002A43144DA84207D0B04205D0134FB84292
:102C900002D0134FB84206D10827BA43CF68174372
:102CA000042297433A46A84207D0B04205D00B4DC4
:102CB000A84202D00A4DA84206D103252D02AB43FB
:102CC0004D691D438B692B434360846149684163AF
:102CD0000262F0BD002C0140004001400044014070
:102CE0000048014070B5026A10239A430262056AE7
:102CF0004268836973242402A3430C6824021C43A2
:102D000020239D438B681B012B43124DA84208D101
:102D10001D46CB688026B5431B012B434025AB43A2
:102D200008E00D4DA84205D00C4DA84202D00C4D34
:102D3000A84208D10325AD02AA434D69AD00154351
:102D40008A6992002A434260846149688163036210
:102D500070BD0000002C01400040014000440140D3
:102D60000048014070B5026AFF2301339A430262B2
:102D7000056A4368C2697024A24392080C689200F5
:102D800014430122520295438A6812022A43124DCB
:102D9000A84208D11546CA68C614B54312022A4390
:102DA0000515AA4308E00D4DA84205D00C4DA842D8
:102DB00002D00C4DA84208D103252D03AB434D6929
:102DC0002D011D438B691B012B434360C46149687E
:102DD000C163026270BD0000002C01400040014050
:102DE000004401400048014030B5026A01231B0342
:102DF0009A430262046A4268C36973252D02AB4399
:102E00000D682D021D4301235B039C438B681B034C
:102E100023430C4CA04208D00B4CA04205D00B4CD5
:102E2000A04202D00A4CA04205D10124A403A2432F
:102E30004C69A40122434260C56149680164036290
:102E400030BD0000002C0140004001400044014022
:102E50000048014010B5818CC90707D001684A6855
:102E600001235B049A43836A1A434A60818C890771
:102E700007D501684A6801231B049A43C36A1A43B1
:102E80004A60818C490707D501684A6801239B0481
:102E90009A43036B1A434A60818C090707D501687E
:102EA0004A680123DB039A43436B1A434A60818CCF
:102EB000C90607D50268916801231B039943836BF8
:102EC00019439160818C890607D501688A680123BE
:102ED0005B039A43C36B1A438A60818C490612D5FF
:102EE00003685A6801210905046C8A4322435A6029
:102EF000026C8A4207D10268516803235B0599433B
:102F0000436C19435160818C090607D501684A68F2
:102F10000123DB04806C9A4302434A6010BD002108
:102F2000C166202260304272827201720846704788
:102F300010B5406A0022014640314A834A82FFF7B9
:102F400080FA10BD70B5446A25466035687A00265F
:102F5000212808D120688068000604D55220065335
:102F6000204600F055F8A87A222808D12068806809
:102F7000400604D55A200653204600F02DF8E06E96
:102F800010210843E0662046FFF75BFA70BD10B5DC
:102F900001460968406A0968890615D400225A2149
:102FA0000A5201680A68FF2301339A430A600168E4
:102FB0008A68520852008A6001688A6840239A43EE
:102FC0008A6020226A210A54FFF776FB10BD10B5F3
:102FD000406AFFF772FB10BD01680A68FF232133C6
:102FE0009A430A6001688A68520852008A60202168
:102FF00060308172704710B501680A6840239A43B7
:103000000A60202269210A54FFF784FB002010BDCA
:1030100001680A68C0239A430A6020216030417227
:10302000704770B50246403203466033948B9D7AF8
:103030000168222D05D0886908221043886102208A
:1030400070BD898C012685683603B54202D10569B9
:10305000002D0BD02140446D651C45652170518BBE
:10306000491E0904090C518307D015E0456D214024
:103070002980416D891C4165F1E701680A68FF24D8
:103080002134A2430A6001688A68520852008A60AB
:1030900020219972FFF710FB002070BDF8B504469F
:1030A0002369A268E5691A43636910202B43002154
:1030B00025681A432B680E463E4F3B4013432B6056
:1030C00023685A6803252D03AA43E5682A435A60FA
:1030D000236AA26925681A43AB680B273F02BB43EA
:1030E0001343AB60344A2568954210D1334A126BC2
:1030F0009207920F0ED0012A05D0022A05D0032A8A
:1031000009D1022007E0042005E0082003E02C4A52
:10311000954200D100200122E369D203934224D1D9
:1031200000280CD002280DD0042813D0082817D06E
:1031300001260A0912010807400F10432FE0FEF78D
:103140006FFC09E061681F4A48088018FDF706F81F
:1031500081B2EEE7FEF774FC616840004A08F4E7CC
:103160006168012248081204EFE7002808D002280D
:1031700009D004280BD0082814D001263046F8BD09
:10318000FEF74EFC05E061680F4A48080CE0FEF7C8
:1031900057FC61684A088018FCF7E0FF80B221689C
:1031A000C860EBE7616848088018FCF7D7FF80B279
:1031B000E860E3E7F369FFFF0038014000100240D8
:1031C000004400400024F40000127A006921095CE8
:1031D000212901D00220704702464032518A00293D
:1031E00012D0012381681B03994202D10169002991
:1031F00015D0C16C4B1CC364006809780185508AE6
:10320000401E50820020704701680A6880239A435C
:103210000A6000680168402211430160F2E7C16C56
:1032200003680988C905C90D1985C16C891CC16469
:10323000E5E7000010B507480068C169C943C90641
:1032400004D4102101620449012008700148FFF7ED
:10325000F9F810BDF00200200A000020FEE700008F
:103260000FB410B504A9074B02AA039800F038F870
:10327000044602A9002000F0DBF9204610BC08BC7F
:1032800004B01847313600082021020C01D010216B
:103290001046020A01D010460839020901D0104632
:1032A000091F820801D01046891E420801D0881EDD
:1032B0007047081A704702E008C8121F08C1002AA8
:1032C000FAD170477047002001E001C1121F002AA7
:1032D000FBD1704701490860704700009000002052
:1032E000FFB58FB00546002606E025280AD0129AC1
:1032F000119990476D1C761C28780028F5D130462E
:1033000013B0F0BD002402940121B54A009400E0FE
:1033100004436D1C2B780846203B98401042F7D19F
:1033200028782A280ED00222287801463039092927
:1033300016D802990A2359433039401814436D1C9A
:103340000290F1E7109802C802911090002904DA67
:1033500001204003044348420290022004436D1CB4
:1033600028782E2817D10420044368786D1C2A2859
:103370000CD110986D1C02C8009110900BE00099C0
:103380000A225143303940186D1C009028780146BC
:1033900030390929F3D928786C2810D006DC4C285C
:1033A0001AD068280ED06A2817D104E0742813D0E8
:1033B0007A2812D110E00120400504430CE00121DD
:1033C000090501E0032109050C436978814203D115
:1033D0000120000524186D1C6D1C2878692874D004
:1033E00006DC00288BD0632827D0642806D16CE047
:1033F0006E2808D073282CD0752878D0129A11998D
:103400009047761C5FE06002400F022809D0032835
:103410000DD00428109801680DD00E60001D10908A
:1034200051E01098F21701680E604A60F6E71098B4
:1034300001680E80F2E70E70F0E710986A46017896
:103440001173001D10900020507303A801900120FB
:1034500005E0109802C8019110900020C043610758
:103460000CD5002700E07F1C00998F420FDA8742BD
:10347000F9DB0199C95D0029F5D108E0002700E0DA
:103480007F1C8742FCDB0199C95D0029F8D10298B5
:103490002146C01B0290129B119A00F0B3F88019CC
:1034A000C61907E0019801990078491C0191129A08
:1034B000119990477F1EF5D22146129B119A0298CE
:1034C00000F090F886196D1C16E70A2001901099FB
:1034D00001C910916102490F032900D100B20429EA
:1034E00000D140B2002803DA40422D2103E00DE074
:1034F000210504D52B216A461173012103E0E10760
:1035000011D02021F7E70CAF0C9114E00A200190B4
:10351000109901C910916102490F032900D180B2AD
:10352000042900D1C0B20021EDE70199FCF716FE95
:1035300030317F1E39700028F7D104A8C01B20301D
:103540000190600704D5012000048443009801E045
:10355000012000900199884201DD401A00E000201E
:10356000411800900C9809180298401A0290E00344
:1035700006D42146129B119A029800F043F886194E
:1035800000200D9008E003A9085C129A1199904759
:103590000D98401C761C0D900C998842F3DBE003DB
:1035A0000CD52146129B119A029800F02BF886192F
:1035B00004E0129A302011999047761C0099481E19
:1035C00000900029F5DC05E03878129A7F1C1199EB
:1035D0009047761C0199481E01900029F4DC6BE7A6
:1035E00009280100F8B5044600251E461746880440
:1035F00004D405E039462020B0476D1C641EF9D57F
:103600002846F8BDFFB50446002581B01E46C80314
:1036100001D5302700E02027880404D505E038468E
:103620000399B0476D1C641EF9D5284605B0F0BD5E
:103630000A68531C0B6010707047000010B50A48F0
:10364000006BFCF775FF0022084BFCF791FE00228F
:10365000074BFCF78DFE074A074BFCF7F1FEFCF722
:103660009FFF80B210BD00000800002000C8A940E4
:1036700000A06B4033333353F8A13C41F8B5504CB4
:103680000020504D2080012189022846FDF7C0FF0F
:103690002178002875D0BF200140217004212846E0
:1036A000FDF7B6FF217800286ED0DF2001402170A1
:1036B00002212846FDF7ACFF2178002867D0EF20D3
:1036C00001402170012149032846FDF7A1FF022690
:1036D000002860785ED0FD21084060700121090358
:1036E0002846FDF795FF0028607855D04008400037
:1036F00060700121C9022846FDF78AFF0028207862
:103700004DD04006400E20700121C9032846FDF728
:103710007FFFF7270028607844D03840607001218F
:1037200089032848FDF774FFFB25002860783CD00A
:103730002840607009204021C006FDF769FF00287D
:10374000207835D0FD210840207009208021C00656
:10375000FDF75EFF002820782CD028402070012142
:103760001848FDF755FF0028207826D038402070F3
:103770001348801E41886846018088B2F8BD00E089
:1037800002E04020014388E7202001438FE710201A
:10379000014396E73043A0E701210843A8E78021D1
:1037A0000843B0E708210843B8E704210843C0E70D
:1037B0003043C9E704210843D0E708210843D6E78E
:1037C000020000200004004838B5134C0020134DBF
:1037D000208080212846FDF71BFF002814D0207888
:1037E00041084900217040212846FDF711FF0028BB
:1037F00020780DD0FD21084020700748001F8188E7
:103800006846018088B238BD217801200143E9E78C
:1038100002210843F0E700000400002000140048E3
:10382000F8B50022244C254D2549012802D0022854
:103830000DD03EE0886B009000283BD00220205E37
:10384000FCF776FE064600200F46205E0BE0C86BB4
:10385000009000282ED00A20205EFCF769FE064664
:1038600008200F46205EFCF763FE00222B46FCF783
:10387000E7FD04460D460098FCF75AFE0022114B66
:10388000FCF776FD0022104BFCF7DAFD00220F4B0F
:10389000FCF76EFD00220E4BFCF75CFD22462B462A
:1038A000FCF766FD32463B46FCF7B0FCFCF754FEE5
:1038B00002B21046F8BD0000A403002000408F4073
:1038C0000800002000C8A94000FEAF400000E43F0F
:1038D00000406F4070B5012149021548FDF798FE80
:1038E00000281DD00024134E012149033046FDF766
:1038F0008FFE002816D0002501212543890330467C
:10390000FDF786FE00280FD0002401212C43C903B7
:103910003046FDF77DFE002808D00020204370BD12
:103920000124E0E70225E7E70424EEE70820F5E7B5
:10393000000400480008004838B501220925540257
:10394000ED0621462846FDF768FE0120FDF703FD40
:10395000002221462846FDF760FE054C002020800D
:1039600000F008F821886846018088B238BD000060
:1039700000000020F8B5092605460121F6060022C0
:1039800089023046FDF749FE0124E4032711002295
:1039900039463046FDF741FE254201D0002200E0C5
:1039A0000122FF2101313046FDF737FE0122394661
:1039B0003046FDF732FE6408E9D10122910230461B
:1039C000FDF72BFEF8BDEFF30580002800D00120A5
:1039D0007047000096B0FDF76FFEFF211422090228
:1039E0005448FCF7E2FB53480023C35E7D21524A52
:1039F000C900002B01DD934200DB01800223C35E7E
:103A000000248B4200DB44800823C35E002B01DDD1
:103A1000934200DB01800A22825E8A4200DB4481FD
:103A2000FFF74EF8FEF7CAFE4448416901221143F0
:103A30004161406903211040159000220920FDF7E3
:103A4000B3FE0920FDF7A6FE002203210A20FDF7A0
:103A5000ABFE0A20FDF79EFEFEF7C0FFFEF75CFE00
:103A6000FEF778FF374836490160FF21E131846075
:103A7000416064210461C16080218161FEF796FA92
:103A8000002800D0FEE7FEF71FFF2E482E49103811
:103A9000016006214160FF212D31C1608160FDF789
:103AA000C9FD002800D0FEE726485C38FDF7A0F8E5
:103AB000244800214030FEF72BFC1E4921480522F6
:103AC00014315C38FDF70EFB1E4800218030FEF7F4
:103AD0001FFCC820FDF73FFC1A4800218030FEF78C
:103AE0003FFC18481038FDF7D7FD1C2217496846DF
:103AF000FCF75BFB0021684600F06EF8144C13499C
:103B000020621C221C3107A8FCF74FFB002107A8EC
:103B100000F062F80D4960621C2238310EA8FCF7F3
:103B200044FB00210EA800F057F8A06200F03CF81A
:103B3000FEE70000A40300208813000000100240EC
:103B4000002000403002002000300040D446000831
:103B50000800002001460020842900D0C81C7047BE
:103B600070B505460A4800220A4C0EE0AB5C58408E
:103B70000023C60702D04008604000E040085B1CFC
:103B80009BB2082BF5D3521C92B28A42EED370BD81
:103B9000FFFF000001A0000010B5002900D10121A5
:103BA00000F0DAFB002010BD10B500F003FC00208F
:103BB00010BD10B5FFF707FF002802D000F0B8FCD9
:103BC00010BD00F0AFFC10BD10B500F09BFC01284B
:103BD00001D000F067FC10BD3EB5044608200D463C
:103BE000205EFFF7B7FF6B46A269616907C32B46EA
:103BF00022692168606800F067FC3EBDF8B5134C8F
:103C00000F46E66805462068001D00F01FFB681C93
:103C100007D1002F05D021680D48091D00F058FB81
:103C2000F8BD2068751945602168B54204D2A06BC3
:103C3000091D00F035FBF8BD606B091D00F030FB7D
:103C4000A06A8542F7D2A562F8BD000054000020AA
:103C5000A00A0020F8B5054600F046FB264CA068F7
:103C6000401CA0602068254F002803D06069002810
:103C700027D02CE02560A068012828D10026142038
:103C80007043C01900F0FEFA761C042EF7D31B48CF
:103C9000503000F0F7FA1948643000F0F3FA174892
:103CA000783000F0EFFA15488C3000F0EBFA13484A
:103CB000A03000F0E7FA1148503060631430A06380
:103CC00005E02068E96AC06A884200D82560606A19
:103CD000401C6062E86A2169884200D92061142191
:103CE0004843C019291D00F0F3FA00F009FB606990
:103CF000002800D02068F8BD54000020000A0020F1
:103D000070B5104D104C15E000F080FB28680028BD
:103D100014D000F05FFC00F0E7FAE868C068001D0E
:103D200000F094FAA068401EA0606068401E6060C9
:103D300000F0E6FA60680028E6D170BD00F04AFCA9
:103D4000F8E700008C0A002054000020FFF7D8FF9D
:103D500000F0F6FAFAE7FFB581B00C9C9000236BF7
:103D6000001F1818C6080A9DF600700701D072B629
:103D7000FEE723180A5C20331A750A5C002A02D079
:103D8000401C1028F5D32046403000270090C77013
:103D9000042D00D30325E562A764201D656400F0AF
:103DA0007CFA2046183000F078FA24610420401B89
:103DB0006462A061E764009807743046049A019930
:103DC00000F022F820600B98002800D0046005B0B5
:103DD000F0BD00000648416B0968002905D0416B21
:103DE000C968C9684968816270470021C943FAE718
:103DF0005400002003480068401C72B600D0FEE763
:103E0000FEE700005000002010B50124031F240627
:103E10001C601B1F1960191F024B0B6014394038BE
:103E20000A6010BDF53D000896B0FFF7C2FEE549F7
:103E300015900A681020106209680A6802430A6037
:103E4000E0494022DC31DF48FEF7E4FBDE4EDF4F85
:103E5000B078002870D0002220213846FDF7DDFB25
:103E6000D8487030006840684021081A85B2D548AB
:103E7000FEF7BBFAFFF72EFD0446082D02D0202DD9
:103E800077D083E1CF482A46D149DC30FCF7B1F93D
:103E9000002801D1012C09D0CD49CA482A46083151
:103EA000DC30FCF7A6F900282DD02EE0C548694685
:103EB000DC3002780A754078487502208875C24A5D
:103EC0000020C875121D117852788B078806DB0F09
:103ED000C00F5B0018434B06DB0F9B001843CB065B
:103EE000DB0FDB001843D307DB0E18434B07DB0F58
:103EF00092075B01D20F92011843C9091043C9010F
:103F0000084369460DE0012C74D0B149AD482A46FA
:103F10001031DC30FCF76DF900280ED00FE00020E6
:103F20001BE00876052105A8FFF71AFE69464876CA
:103F3000000A88760722B5E030E1012C76D0A4494A
:103F4000A0482A461831DC30FCF753F9002811D07C
:103F500012E0FFF765FC0028E1DB9A4A6946DC3293
:103F600013780B7552784A7502228A750212CA7547
:103F7000D7E7BEE0022C09D0954992482A46203165
:103F8000DC30FCF736F9002835D036E08D486A463B
:103F9000DC30017811754078507502209075002052
:103FA000D075894A121D1078527883078106DB0F7D
:103FB000C90F5B0019434306DB0F9B001943C3067F
:103FC000DB0F1943D307DB0E19434307DB0F9207BF
:103FD0005B01D20F194392011143C00901436A46A4
:103FE0001176052105A8FFF7BBFD6A465076000A49
:103FF00090769FE70BE0022C09D0754971482A465C
:104000002831DC30FCF7F5F8002802D003E001206D
:104010009FE7022C0AD06E496A482A463031DC30CC
:10402000FCF7E7F8002803D004E0FFE7022090E760
:10403000012C14D0664963482A464831DC30FCF72D
:10404000D8F8002801D1022C09D061495D482A46E0
:104050003831DC30FCF7CDF800282DD02EE02821B7
:1040600005A8FCF7BBF8FFF7AFFB0190FFF706FBD5
:1040700000900220FFF7D4FB02900120FFF7D0FB55
:104080000546FFF7DBFA04466846828803880393F7
:104090000492019500944FA350A251A105A8FFF7E7
:1040A000DFF8282205A94748FEF708FB0022102167
:1040B0003846FDF7B2FA69E0012C0AD0444941487C
:1040C0002A465031DC30FCF794F800285ED1022CEF
:1040D0005CD1202105A8FCF781F8522069460875BB
:1040E000384905A81422B4310130FCF75EF82022CB
:1040F0003EE03749334808224031DC30FCF779F89C
:10410000002801D1012C0AD031492E48082258310B
:10411000DC30FCF76EF8002838D1022C36D1202193
:1041200005A8FCF75BF8FDF7BDF900200090FF251E
:1041300001202D020290019503A96846FDF71AF9A6
:1041400020491422E43108463038FCF72EF80024C8
:104150001C49A000B4310A58411900230220FDF780
:1041600063F9641CE4B2052CF2D3FDF753F908227D
:1041700005A91448FEF7A2FA002210213846FDF7DF
:104180004CFA104800214038FEF7C2F800200D49D3
:10419000B0704022DC310B48FEF73CFA142115A820
:1041A000FFF7FAFC074800214038FEF7D9F8012252
:1041B00020213846FDF731FA012210213846FDF75B
:1041C0002CFA45E6F0020020080000200004004818
:1041D00074460008312E322E38000000412E320085
:1041E0004220257320257320253033642025303468
:1041F0006420253034642025303464202530326436
:1042000020000000F8B506460C46FCF769FA051ECA
:104210000F4600D00120014349000B484908411ACC
:10422000C90F0DD0002E01D0012100E000210C4368
:1042300061004908401AC00F02D10120FFF74AF877
:1042400028463946F8BD00000000F07F43688268C8
:1042500001699A60836842685A604A68824201D163
:1042600082684A60002202610868401E0860704748
:10427000034B0360184654300860402010607047BC
:104280004C0800200146083100224160D243C16041
:104290008260016100210160704700210161704767
:1042A00030B50B685A1C02D00246083202E002699F
:1042B00004E02246546825689D42FAD953684B6051
:1042C00099608A60516008610168491C016030BDD5
:1042D00042684A6093688B60936859609160086196
:1042E0000168491C0160704772B604480168491CA6
:1042F0000160BFF34F8FBFF36F8F704750000020F6
:1043000005490868002804D0401E086000D162B644
:10431000704772B6FEE700005000002010B5064856
:104320007D21C9000068FBF719FF0449401E486160
:104330000720086110BD00004800002000E000E0F8
:104340000120044900074860BFF34F8FBFF36F8F10
:104350007047000000ED00E070B50D46040007D086
:10436000002D07D0124A106B002805D072B6FEE768
:1043700072B6FEE772B6FEE700F048F8D26823682E
:104380005919934204D98B420AD9914202D807E0C5
:104390008B42FAD9881A21600021FFF72FFC00E038
:1043A000216000F017F9002801D1FFF7C9FF70BDA7
:1043B0005400002010B586B00024039405AA04A977
:1043C00003A80494FFF754FF049903980094019103
:1043D0000290002309A10B48059A00F075F80A49DC
:1043E0000028C86208D072B60020C043886201204D
:1043F0004861CC6000F03EF806B010BD49444C4521
:10440000000000004D3D0008540000200248016BF0
:10441000491C0163704700005400002010B5134888
:10442000016B002902D00121C16110BD0021C161D1
:1044300001690F4A02E0002915D0491E14234B439D
:10444000D358002BF7D014234B439A1853681446C3
:104450005B6808345360A34201D15B685360DA683B
:104460000260016110BD72B6FEE70000540000203A
:10447000000A002010B50948016AFF221204114306
:104480000162016A120211430162FFF747FF04490A
:1044900000200860FBF718FE002010BD00ED00E0D2
:1044A0005000002010B5FBF723FE044600F046F84C
:1044B000002803D001200349000748602046FBF78D
:1044C0001BFE10BD00ED00E0F0B585B007460B9D6A
:1044D0000C9C0A98002D11D0002C11D025630025CA
:1044E00004AE00900196039502943846FFF733FC22
:1044F0002046FFF7AFFB049805B0F0BD72B6FEE7AB
:1045000072B6FEE706484169002904D0006B002816
:1045100003D0002070470120704702207047000040
:10452000540000200148C06870470000540000207B
:104530000148C0687047000054000020F8B5002012
:10454000224C0090206B002804D0A069401CA06180
:104550000098F8BDE668761CE6600ED1606B0068D6
:10456000002801D072B6FEE7606BA16B6163A063A7
:10457000206A401C2062FFF72DFCA06A8642E7D328
:10458000134F606B0068002807D0606BC068C56877
:104590006868864204D2A062DAE70020C043FAE7E6
:1045A000281DFFF753FEA86A002803D028461830BC
:1045B000FFF74CFEE86A2169884200D92061142186
:1045C0004843C019291DFFF783FEDAE75400002095
:1045D000000A0020F8B50025244C0095206B002827
:1045E00008D0FFF781FE206B401E2063206B00285F
:1045F00002D037E072B6FEE7A0681D4F0126002802
:104600001CD12FE0F868C56828461830FFF71EFE59
:10461000281DFFF71BFEE86A2169884200D9206146
:1046200014214843124978394018291DFFF750FEDC
:10463000E86A2168C96A884200D3E66138680028C0
:10464000E0D1002D01D0FFF7C5FBA569002D08D0F2
:10465000FFF774FF002800D0E6616D1EF8D100203E
:10466000A061E069FFF74CFE0098F8BD54000020FF
:10467000780A0020010300000001840A0B030004F3
:104680000001C5610C0300040001C4D60203000050
:10469000000184390D0300040001C5070E03000466
:1046A0000001C534016400000001B1C201650000D1
:1046B00000018C02016600000001C80202640000D3
:1046C0000001B1F10265000000018C3102660000BA
:1046D0000001C831504700086D2A0008FEFF0000A5
:1046E00000000000400000005004002050050020A1
:1046F00040470008293E00080000000000000000BC
:1047000040000000A4050020A40600205C4700082B
:1047100029090008FFFF0000000000004000000021
:10472000F8060020F807002000000000000000004C
:104730000102030406070809000000000102030447
:10474000726567756C617253616D706C6500000015
:1047500064656661756C745461736B004C65644488
:104760006973706C617900008847000800000020C0
:1047700094000000B63200081C4800089400002095
:10478000240E0000C63200080000000000000000F7
:104790000000000000000000000000000000000019
:1047A0000000000000000000000000000000000009
:1047B00000000000000000000000000000000000F9
:1047C00000000000000000000000000000000000E9
:1047D00000127A0000000000AAAAAAAA00000000A5
:1047E00000000000000000000000000000000000C9
:1047F00000000000000000000000000000000000B9
:1048000000000000000000000000000000000000A8
:0C4810000000000000000000000000009C
:04000005080000B53A
:00000001FF
